{
  "contractName": "FileRegistry",
  "abi": [
    {
      "anonymous": false,
      "inputs": [
        {
          "indexed": false,
          "internalType": "bytes32",
          "name": "hash",
          "type": "bytes32"
        },
        {
          "indexed": false,
          "internalType": "address",
          "name": "uploader",
          "type": "address"
        },
        {
          "indexed": false,
          "internalType": "uint256",
          "name": "timestamp",
          "type": "uint256"
        },
        {
          "indexed": false,
          "internalType": "string",
          "name": "link",
          "type": "string"
        }
      ],
      "name": "FileRegistered",
      "type": "event"
    },
    {
      "inputs": [
        {
          "internalType": "bytes32",
          "name": "",
          "type": "bytes32"
        }
      ],
      "name": "files",
      "outputs": [
        {
          "internalType": "address",
          "name": "uploader",
          "type": "address"
        },
        {
          "internalType": "uint256",
          "name": "timestamp",
          "type": "uint256"
        },
        {
          "internalType": "string",
          "name": "link",
          "type": "string"
        }
      ],
      "stateMutability": "view",
      "type": "function",
      "constant": true
    },
    {
      "inputs": [
        {
          "internalType": "bytes32",
          "name": "fileHash",
          "type": "bytes32"
        },
        {
          "internalType": "string",
          "name": "link",
          "type": "string"
        }
      ],
      "name": "registerFileHash",
      "outputs": [],
      "stateMutability": "nonpayable",
      "type": "function"
    },
    {
      "inputs": [
        {
          "internalType": "bytes32",
          "name": "fileHash",
          "type": "bytes32"
        }
      ],
      "name": "getFileUploader",
      "outputs": [
        {
          "internalType": "address",
          "name": "",
          "type": "address"
        }
      ],
      "stateMutability": "view",
      "type": "function",
      "constant": true
    },
    {
      "inputs": [
        {
          "internalType": "bytes32",
          "name": "fileHash",
          "type": "bytes32"
        }
      ],
      "name": "getFileTimestamp",
      "outputs": [
        {
          "internalType": "uint256",
          "name": "",
          "type": "uint256"
        }
      ],
      "stateMutability": "view",
      "type": "function",
      "constant": true
    },
    {
      "inputs": [
        {
          "internalType": "bytes32",
          "name": "fileHash",
          "type": "bytes32"
        }
      ],
      "name": "getFileLink",
      "outputs": [
        {
          "internalType": "string",
          "name": "",
          "type": "string"
        }
      ],
      "stateMutability": "view",
      "type": "function",
      "constant": true
    }
  ],
  "bytecode": "0x60806040523461001f57610011610024565b610d7561002f8239610d7590f35b61002a565b60405190565b5f80fdfe60806040526004361015610013575b6105c6565b61001d5f3561006c565b80632504c2fc1461006757806388ac1a031461006257806398c9adff1461005d578063ef86fc64146100585763f38b833c0361000e57610592565b61046f565b610422565b6101a5565b6100ed565b60e01c90565b60405190565b5f80fd5b5f80fd5b5f80fd5b90565b61009081610084565b0361009757565b5f80fd5b905035906100a882610087565b565b906020828203126100c3576100c0915f0161009b565b90565b61007c565b90565b6100d4906100c8565b9052565b91906100eb905f602085019401906100cb565b565b3461011d576101196101086101033660046100aa565b610c89565b610110610072565b918291826100d8565b0390f35b610078565b5190565b60209181520190565b5f5b838110610141575050905f910152565b806020918301518185015201610131565b601f801991011690565b61017b6101846020936101899361017281610122565b93848093610126565b9586910161012f565b610152565b0190565b6101a29160208201915f81840391015261015c565b90565b346101d5576101d16101c06101bb3660046100aa565b610cec565b6101c8610072565b9182918261018d565b0390f35b610078565b6101e390610084565b90565b906101f0906101da565b5f5260205260405f2090565b5f1c90565b60018060a01b031690565b61021861021d916101fc565b610201565b90565b61022a905461020c565b90565b90565b61023c610241916101fc565b61022d565b90565b61024e9054610230565b90565b634e487b7160e01b5f52602260045260245ffd5b9060016002830492168015610285575b602083101461028057565b610251565b91607f1691610275565b60209181520190565b5f5260205f2090565b905f92918054906102bb6102b483610265565b809461028f565b916001811690815f1461031257506001146102d6575b505050565b6102e39192939450610298565b915f925b8184106102fa57505001905f80806102d1565b600181602092959395548486015201910192906102e7565b92949550505060ff19168252151560200201905f80806102d1565b90610337916102a1565b90565b634e487b7160e01b5f52604160045260245ffd5b9061035890610152565b810190811067ffffffffffffffff82111761037257604052565b61033a565b9061039761039092610387610072565b9384809261032d565b038361034e565b565b6103a3905f6101e6565b6103ae5f8201610220565b916103c760026103c060018501610244565b9301610377565b90565b60018060a01b031690565b6103de906103ca565b90565b6103ea906103d5565b9052565b61041261041f94929361040860608401955f8501906103e1565b60208301906100cb565b604081840391015261015c565b90565b346104555761045161043d6104383660046100aa565b610399565b610448939193610072565b938493846103ee565b0390f35b610078565b919061046d905f602085019401906103e1565b565b3461049f5761049b61048a6104853660046100aa565b610c37565b610492610072565b9182918261045a565b0390f35b610078565b5f80fd5b5f80fd5b906104bf6104b8610072565b928361034e565b565b67ffffffffffffffff81116104df576104db602091610152565b0190565b61033a565b90825f939282370152565b909291926105046104ff826104c1565b6104ac565b938185526020850190828401116105205761051e926104e4565b565b6104a8565b9080601f8301121561054357816020610540933591016104ef565b90565b6104a4565b91909160408184031261058857610561835f830161009b565b92602082013567ffffffffffffffff8111610583576105809201610525565b90565b610080565b61007c565b5f0190565b346105c1576105ab6105a5366004610548565b90610ad9565b6105b3610072565b806105bd8161058d565b0390f35b610078565b5f80fd5b90565b5f1b90565b6105e66105e16105eb926105ca565b6105cd565b610084565b90565b5f7f496e76616c696420486173680000000000000000000000000000000000000000910152565b610622600c602092610126565b61062b816105ee565b0190565b6106449060208101905f818303910152610615565b90565b1561064e57565b610656610072565b62461bcd60e51b81528061066c6004820161062f565b0390fd5b90565b61068761068261068c926105ca565b610670565b6100c8565b90565b60207f7465726564000000000000000000000000000000000000000000000000000000917f546869732066696c652068617320616c7265616479206265656e2072656769735f8201520152565b6106e96025604092610126565b6106f28161068f565b0190565b61070b9060208101905f8183039101526106dc565b90565b1561071557565b61071d610072565b62461bcd60e51b815280610733600482016106f6565b0390fd5b61074160606104ac565b90565b9061074e906103d5565b9052565b9061075c906100c8565b9052565b52565b61076d90516103d5565b90565b9061078160018060a01b03916105cd565b9181191691161790565b61079f61079a6107a4926103ca565b610670565b6103ca565b90565b6107b09061078b565b90565b6107bc906107a7565b90565b90565b906107d76107d26107de926107b3565b6107bf565b8254610770565b9055565b6107ec90516100c8565b90565b906107fb5f19916105cd565b9181191691161790565b61081961081461081e926100c8565b610670565b6100c8565b90565b90565b9061083961083461084092610805565b610821565b82546107ef565b9055565b5190565b601f602091010490565b1b90565b9190600861087191029161086b5f1984610852565b92610852565b9181191691161790565b919061089161088c61089993610805565b610821565b908354610856565b9055565b5f90565b6108b3916108ad61089d565b9161087b565b565b5b8181106108c1575050565b806108ce5f6001936108a1565b016108b6565b9190601f81116108e4575b505050565b6108f061091593610298565b9060206108fc84610848565b8301931061091d575b61090e90610848565b01906108b5565b5f80806108df565b915061090e81929050610905565b1c90565b9061093f905f199060080261092b565b191690565b8161094e9161092f565b906002021790565b9061096081610122565b9067ffffffffffffffff8211610a20576109848261097e8554610265565b856108d4565b602090601f83116001146109b8579180916109a7935f926109ac575b5050610944565b90555b565b90915001515f806109a0565b601f198316916109c785610298565b925f5b818110610a08575091600293918560019694106109ee575b505050020190556109aa565b6109fe910151601f84169061092f565b90555f80806109e2565b919360206001819287870151815501950192016109ca565b61033a565b90610a2f91610956565b565b90610a7560406002610a7b94610a545f8201610a4e5f8801610763565b906107c2565b610a6d60018201610a67602088016107e2565b90610824565b019201610844565b90610a25565b565b90610a8791610a31565b565b610a9290610084565b9052565b9092610ac990610abf610ad69694610ab560808601975f870190610a89565b60208501906103e1565b60408301906100cb565b606081840391015261015c565b90565b610afe81610af7610af1610aec5f6105d2565b610084565b91610084565b1415610647565b610b2f610b176001610b115f85906101e6565b01610244565b610b29610b235f610673565b916100c8565b1461070e565b610b7233610b6242610b598691610b50610b47610737565b955f8701610744565b60208501610752565b60408301610760565b610b6d5f84906101e6565b610a7d565b3390610bac42937f6941311282d328a10b3e5068cc859a88709be2383f0b692e027b430f2c52685994610ba3610072565b94859485610a96565b0390a1565b5f90565b5f7f46696c65206e6f74207265676973746572656400000000000000000000000000910152565b610be96013602092610126565b610bf281610bb5565b0190565b610c0b9060208101905f818303910152610bdc565b90565b15610c1557565b610c1d610072565b62461bcd60e51b815280610c3360048201610bf6565b0390fd5b5f610c80610c8692610c47610bb1565b50610c7a610c616001610c5b8685906101e6565b01610244565b610c73610c6d86610673565b916100c8565b1415610c0e565b826101e6565b01610220565b90565b6001610cd2610cd892610c9a61089d565b50610ccc610cb384610cad5f85906101e6565b01610244565b610cc5610cbf5f610673565b916100c8565b1415610c0e565b5f6101e6565b01610244565b90565b606090565b610ce990610377565b90565b6002610d36610d3c92610cfd610cdb565b50610d30610d176001610d115f85906101e6565b01610244565b610d29610d235f610673565b916100c8565b1415610c0e565b5f6101e6565b01610ce0565b9056fea2646970667358221220a54b96547641df141df0d26057ef2dd856f8e80cf88557518f3e72036a98211864736f6c63430008150033",
  "immutableReferences": {},
  "source": "// SPDX-License-Identifier: MIT\npragma solidity ^0.8.20;\n\ncontract FileRegistry {\n    struct FileRecord {\n        address uploader;\n        uint256 timestamp;\n        string link;\n    }\n\n    mapping(bytes32 => FileRecord) public files;\n\n    event FileRegistered(bytes32 hash, address uploader, uint256 timestamp, string link);\n\n    function registerFileHash(bytes32 fileHash, string memory link) public {\n        require(fileHash != bytes32(0), \"Invalid Hash\");\n        require(files[fileHash].timestamp == 0, \"This file has already been registered\");\n\n        files[fileHash] = FileRecord({\n            uploader: msg.sender,\n            timestamp: block.timestamp,\n            link: link\n        });\n\n        emit FileRegistered(fileHash, msg.sender, block.timestamp, link);\n    }\n\n    function getFileUploader(bytes32 fileHash) public view returns (address) {\n        require(files[fileHash].timestamp != 0, \"File not registered\");\n        return files[fileHash].uploader;\n    }\n\n    function getFileTimestamp(bytes32 fileHash) public view returns (uint256) {\n        require(files[fileHash].timestamp != 0, \"File not registered\");\n        return files[fileHash].timestamp;\n    }\n\n    function getFileLink(bytes32 fileHash) public view returns (string memory) {\n        require(files[fileHash].timestamp != 0, \"File not registered\");\n        return files[fileHash].link;\n    }\n}",
  "sourcePath": "/home/gess-desktop/Desktop/TCC/meican-smart-contract-api/contracts/FileRegistry.sol",
  "compiler": {
    "name": "solc",
    "version": "0.8.21+commit.d9974bed.Emscripten.clang"
  },
  "schemaVersion": "3.4.16",
  "updatedAt": "2025-04-03T01:26:48.856Z",
  "networkType": "ethereum",
  "devdoc": {
    "kind": "dev",
    "methods": {},
    "version": 1
  },
  "userdoc": {
    "kind": "user",
    "methods": {},
    "version": 1
  }
}