{
  "contractName": "MEICANRequestManager",
  "abi": [
    {
      "anonymous": false,
      "inputs": [
        {
          "indexed": false,
          "internalType": "bytes32",
          "name": "id",
          "type": "bytes32"
        },
        {
          "indexed": false,
          "internalType": "bytes32",
          "name": "policyHash",
          "type": "bytes32"
        },
        {
          "indexed": false,
          "internalType": "string",
          "name": "policyLink",
          "type": "string"
        },
        {
          "indexed": false,
          "internalType": "string",
          "name": "encryptedAESKey",
          "type": "string"
        }
      ],
      "name": "CircuitApproved",
      "type": "event"
    },
    {
      "anonymous": false,
      "inputs": [
        {
          "indexed": false,
          "internalType": "bytes32",
          "name": "id",
          "type": "bytes32"
        },
        {
          "indexed": false,
          "internalType": "bytes32",
          "name": "policyHash",
          "type": "bytes32"
        },
        {
          "indexed": false,
          "internalType": "string",
          "name": "policyLink",
          "type": "string"
        },
        {
          "indexed": false,
          "internalType": "string",
          "name": "encryptedAESKey",
          "type": "string"
        }
      ],
      "name": "CircuitRejected",
      "type": "event"
    },
    {
      "anonymous": false,
      "inputs": [
        {
          "indexed": false,
          "internalType": "bytes32",
          "name": "id",
          "type": "bytes32"
        },
        {
          "indexed": false,
          "internalType": "address",
          "name": "requester",
          "type": "address"
        },
        {
          "indexed": false,
          "internalType": "string",
          "name": "source",
          "type": "string"
        },
        {
          "indexed": false,
          "internalType": "string",
          "name": "destination",
          "type": "string"
        },
        {
          "indexed": false,
          "internalType": "uint256",
          "name": "bandwidth",
          "type": "uint256"
        },
        {
          "indexed": false,
          "internalType": "uint256",
          "name": "startTime",
          "type": "uint256"
        },
        {
          "indexed": false,
          "internalType": "uint256",
          "name": "endTime",
          "type": "uint256"
        },
        {
          "indexed": false,
          "internalType": "bool",
          "name": "recurring",
          "type": "bool"
        },
        {
          "indexed": false,
          "internalType": "string",
          "name": "path",
          "type": "string"
        },
        {
          "indexed": false,
          "internalType": "string",
          "name": "status",
          "type": "string"
        }
      ],
      "name": "CircuitRequested",
      "type": "event"
    },
    {
      "inputs": [
        {
          "internalType": "bytes32",
          "name": "",
          "type": "bytes32"
        }
      ],
      "name": "requests",
      "outputs": [
        {
          "internalType": "bytes32",
          "name": "id",
          "type": "bytes32"
        },
        {
          "internalType": "address",
          "name": "requester",
          "type": "address"
        },
        {
          "components": [
            {
              "internalType": "string",
              "name": "source",
              "type": "string"
            },
            {
              "internalType": "string",
              "name": "destination",
              "type": "string"
            },
            {
              "internalType": "uint256",
              "name": "bandwidth",
              "type": "uint256"
            },
            {
              "internalType": "uint256",
              "name": "startTime",
              "type": "uint256"
            },
            {
              "internalType": "uint256",
              "name": "endTime",
              "type": "uint256"
            },
            {
              "internalType": "bool",
              "name": "recurring",
              "type": "bool"
            },
            {
              "internalType": "string",
              "name": "path",
              "type": "string"
            }
          ],
          "internalType": "struct MEICANRequestManager.CircuitParams",
          "name": "params",
          "type": "tuple"
        },
        {
          "internalType": "string",
          "name": "status",
          "type": "string"
        },
        {
          "internalType": "uint256",
          "name": "timestamp",
          "type": "uint256"
        },
        {
          "internalType": "bool",
          "name": "approved",
          "type": "bool"
        },
        {
          "internalType": "bytes32",
          "name": "policyHash",
          "type": "bytes32"
        },
        {
          "internalType": "string",
          "name": "policyLink",
          "type": "string"
        },
        {
          "internalType": "string",
          "name": "encryptedAESKey",
          "type": "string"
        }
      ],
      "stateMutability": "view",
      "type": "function",
      "constant": true
    },
    {
      "inputs": [
        {
          "internalType": "string",
          "name": "source",
          "type": "string"
        },
        {
          "internalType": "string",
          "name": "destination",
          "type": "string"
        },
        {
          "internalType": "uint256",
          "name": "bandwidth",
          "type": "uint256"
        },
        {
          "internalType": "uint256",
          "name": "startTime",
          "type": "uint256"
        },
        {
          "internalType": "uint256",
          "name": "endTime",
          "type": "uint256"
        },
        {
          "internalType": "bool",
          "name": "recurring",
          "type": "bool"
        },
        {
          "internalType": "string",
          "name": "path",
          "type": "string"
        }
      ],
      "name": "requestCircuit",
      "outputs": [
        {
          "internalType": "bytes32",
          "name": "",
          "type": "bytes32"
        }
      ],
      "stateMutability": "nonpayable",
      "type": "function"
    },
    {
      "inputs": [
        {
          "internalType": "bytes32",
          "name": "id",
          "type": "bytes32"
        },
        {
          "internalType": "bytes32",
          "name": "policyHash",
          "type": "bytes32"
        },
        {
          "internalType": "string",
          "name": "policyLink",
          "type": "string"
        },
        {
          "internalType": "string",
          "name": "encryptedAESKey",
          "type": "string"
        }
      ],
      "name": "approveCircuit",
      "outputs": [],
      "stateMutability": "nonpayable",
      "type": "function"
    },
    {
      "inputs": [
        {
          "internalType": "bytes32",
          "name": "id",
          "type": "bytes32"
        },
        {
          "internalType": "bytes32",
          "name": "policyHash",
          "type": "bytes32"
        },
        {
          "internalType": "string",
          "name": "policyLink",
          "type": "string"
        },
        {
          "internalType": "string",
          "name": "encryptedAESKey",
          "type": "string"
        }
      ],
      "name": "rejectCircuit",
      "outputs": [],
      "stateMutability": "nonpayable",
      "type": "function"
    },
    {
      "inputs": [
        {
          "internalType": "bytes32",
          "name": "_id",
          "type": "bytes32"
        }
      ],
      "name": "getCircuitRequest",
      "outputs": [
        {
          "components": [
            {
              "internalType": "bytes32",
              "name": "id",
              "type": "bytes32"
            },
            {
              "internalType": "address",
              "name": "requester",
              "type": "address"
            },
            {
              "components": [
                {
                  "internalType": "string",
                  "name": "source",
                  "type": "string"
                },
                {
                  "internalType": "string",
                  "name": "destination",
                  "type": "string"
                },
                {
                  "internalType": "uint256",
                  "name": "bandwidth",
                  "type": "uint256"
                },
                {
                  "internalType": "uint256",
                  "name": "startTime",
                  "type": "uint256"
                },
                {
                  "internalType": "uint256",
                  "name": "endTime",
                  "type": "uint256"
                },
                {
                  "internalType": "bool",
                  "name": "recurring",
                  "type": "bool"
                },
                {
                  "internalType": "string",
                  "name": "path",
                  "type": "string"
                }
              ],
              "internalType": "struct MEICANRequestManager.CircuitParams",
              "name": "params",
              "type": "tuple"
            },
            {
              "internalType": "string",
              "name": "status",
              "type": "string"
            },
            {
              "internalType": "uint256",
              "name": "timestamp",
              "type": "uint256"
            },
            {
              "internalType": "bool",
              "name": "approved",
              "type": "bool"
            },
            {
              "internalType": "bytes32",
              "name": "policyHash",
              "type": "bytes32"
            },
            {
              "internalType": "string",
              "name": "policyLink",
              "type": "string"
            },
            {
              "internalType": "string",
              "name": "encryptedAESKey",
              "type": "string"
            }
          ],
          "internalType": "struct MEICANRequestManager.CircuitRequest",
          "name": "",
          "type": "tuple"
        }
      ],
      "stateMutability": "view",
      "type": "function",
      "constant": true
    }
  ],
  "bytecode": "0x60806040523461001f57610011610024565b611c3f61002f8239611c3f90f35b61002a565b60405190565b5f80fdfe60806040526004361015610013575b610b29565b61001d5f3561006c565b8063052962701461006757806317811bc1146100625780632f4ad4341461005d5780639d866985146100585763eea38b570361000e57610aed565b61099a565b6104ad565b610478565b610211565b60e01c90565b60405190565b5f80fd5b5f80fd5b5f80fd5b90565b61009081610084565b0361009757565b5f80fd5b905035906100a882610087565b565b5f80fd5b5f80fd5b601f801991011690565b634e487b7160e01b5f52604160045260245ffd5b906100da906100b2565b810190811067ffffffffffffffff8211176100f457604052565b6100bc565b9061010c610105610072565b92836100d0565b565b67ffffffffffffffff811161012c576101286020916100b2565b0190565b6100bc565b90825f939282370152565b9092919261015161014c8261010e565b6100f9565b9381855260208501908284011161016d5761016b92610131565b565b6100ae565b9080601f830112156101905781602061018d9335910161013c565b90565b6100aa565b90608082820312610207576101ac815f840161009b565b926101ba826020850161009b565b92604081013567ffffffffffffffff811161020257836101db918301610172565b92606082013567ffffffffffffffff81116101fd576101fa9201610172565b90565b610080565b610080565b61007c565b5f0190565b346102435761022d610224366004610195565b9291909161175a565b610235610072565b8061023f8161020c565b0390f35b610078565b906020828203126102615761025e915f0161009b565b90565b61007c565b61026f90610084565b9052565b60018060a01b031690565b61028790610273565b90565b6102939061027e565b9052565b5190565b60209181520190565b5f5b8381106102b6575050905f910152565b8060209183015181850152016102a6565b6102e66102ef6020936102f4936102dd81610297565b9384809361029b565b958691016102a4565b6100b2565b0190565b90565b610304906102f8565b9052565b151590565b61031690610308565b9052565b6103a59160c061034c61033a60e084015f8601518582035f8701526102c7565b602085015184820360208601526102c7565b9261035f604082015160408501906102fb565b610371606082015160608501906102fb565b610383608082015160808501906102fb565b61039560a082015160a085019061030d565b01519060c08184039101526102c7565b90565b61045d9161010061044b6104036103f161012085016103cd5f8801515f880190610266565b6103df6020880151602088019061028a565b6040870151868203604088015261031a565b606086015185820360608701526102c7565b610415608086015160808601906102fb565b61042760a086015160a086019061030d565b61043960c086015160c0860190610266565b60e085015184820360e08601526102c7565b920151906101008184039101526102c7565b90565b6104759160208201915f8184039101526103a8565b90565b346104a8576104a461049361048e366004610248565b611beb565b61049b610072565b91829182610460565b0390f35b610078565b346104df576104c96104c0366004610195565b929190916118c5565b6104d1610072565b806104db8161020c565b0390f35b610078565b6104ed90610084565b90565b906104fa906104e4565b5f5260205260405f2090565b5f1c90565b90565b61051a61051f91610506565b61050b565b90565b61052c905461050e565b90565b60018060a01b031690565b61054661054b91610506565b61052f565b90565b610558905461053a565b90565b634e487b7160e01b5f52602260045260245ffd5b906001600283049216801561058f575b602083101461058a57565b61055b565b91607f169161057f565b5f5260205f2090565b905f92918054906105bc6105b58361056f565b809461029b565b916001811690815f1461061357506001146105d7575b505050565b6105e49192939450610599565b915f925b8184106105fb57505001905f80806105d2565b600181602092959395548486015201910192906105e8565b92949550505060ff19168252151560200201905f80806105d2565b90610638916105a2565b90565b9061065b6106549261064b610072565b9384809261062e565b03836100d0565b565b52565b90565b61066f61067491610506565b610660565b90565b6106819054610663565b90565b9061068e906102f8565b9052565b60ff1690565b6106a46106a991610506565b610692565b90565b6106b69054610698565b90565b906106c390610308565b9052565b6106d160e06100f9565b90565b9061078361077a60066106e56106c7565b946106fc6106f45f830161063b565b5f880161065d565b61071461070b6001830161063b565b6020880161065d565b61072c61072360028301610677565b60408801610684565b61074461073b60038301610677565b60608801610684565b61075c61075360048301610677565b60808801610684565b61077461076b600583016106ac565b60a088016106b9565b0161063b565b60c0840161065d565b565b61078f905f6104f0565b61079a5f8201610522565b916107a76001830161054e565b916107b4600282016106d4565b916107c16009830161063b565b916107ce600a8201610677565b916107db600b83016106ac565b916107e8600c8201610522565b91610801600e6107fa600d850161063b565b930161063b565b90565b61080d90610084565b9052565b61081a9061027e565b9052565b6108a99160c061085061083e60e084015f8601518582035f8701526102c7565b602085015184820360208601526102c7565b92610863604082015160408501906102fb565b610875606082015160608501906102fb565b610887608082015160808501906102fb565b61089960a082015160a085019061030d565b01519060c08184039101526102c7565b90565b60209181520190565b6108d46108dd6020936108e2936108cb81610297565b938480936108ac565b958691016102a4565b6100b2565b0190565b6108ef906102f8565b9052565b6108fc90610308565b9052565b97939561096761095c6109889861094d6109719561097b986109979f9d988f90610940906109366101208401955f850190610804565b6020830190610811565b604081840391015261081e565b908c60608184039101526108b5565b9660808b01906108e6565b60a08901906108f3565b60c0870190610804565b84820360e08601526108b5565b916101008184039101526108b5565b90565b346109d4576109d06109b56109b0366004610248565b610785565b956109c7999799959195949294610072565b998a998a610900565b0390f35b610078565b6109e2816102f8565b036109e957565b5f80fd5b905035906109fa826109d9565b565b610a0581610308565b03610a0c57565b5f80fd5b90503590610a1d826109fc565b565b9060e082820312610ad3575f82013567ffffffffffffffff8111610ace5781610a49918401610172565b92602083013567ffffffffffffffff8111610ac95782610a6a918501610172565b92610a7883604083016109ed565b92610a8681606084016109ed565b92610a9482608085016109ed565b92610aa28360a08301610a10565b9260c082013567ffffffffffffffff8111610ac457610ac19201610172565b90565b610080565b610080565b610080565b61007c565b9190610aeb905f60208501940190610804565b565b34610b2457610b20610b0f610b03366004610a1f565b9594909493919361128a565b610b17610072565b91829182610ad8565b0390f35b610078565b5f80fd5b5f90565b60601b90565b610b4090610b31565b90565b610b4c90610b37565b90565b610b5b610b609161027e565b610b43565b9052565b905090565b610b8e610b8592602092610b7c81610297565b94858093610b64565b938491016102a4565b0190565b90565b610ba1610ba6916102f8565b610b92565b9052565b92610bcc610bd993601486610bc560209998610bd297610b4f565b0190610b69565b90610b69565b8092610b95565b0190565b60200190565b5190565b610bf160e06100f9565b90565b610bff6101206100f9565b90565b90610c0c90610084565b9052565b90610c1a9061027e565b9052565b52565b90610c33610c2e8361010e565b6100f9565b918252565b5f7f70656e64696e6700000000000000000000000000000000000000000000000000910152565b610c696007610c21565b90610c7660208301610c38565b565b610c80610c5f565b90565b90565b5f1b90565b610c9f610c9a610ca492610c83565b610c86565b610084565b90565b610cb05f610c21565b90565b610cbb610ca7565b90565b610cc89051610084565b90565b90610cd75f1991610c86565b9181191691161790565b610cea90610506565b90565b90610d02610cfd610d09926104e4565b610ce1565b8254610ccb565b9055565b610d17905161027e565b90565b90610d2b60018060a01b0391610c86565b9181191691161790565b90565b610d4c610d47610d5192610273565b610d35565b610273565b90565b610d5d90610d38565b90565b610d6990610d54565b90565b90565b90610d84610d7f610d8b92610d60565b610d6c565b8254610d1a565b9055565b5190565b5190565b601f602091010490565b1b90565b91906008610dc0910291610dba5f1984610da1565b92610da1565b9181191691161790565b610dde610dd9610de3926102f8565b610d35565b6102f8565b90565b90565b9190610dff610dfa610e0793610dca565b610de6565b908354610da5565b9055565b5f90565b610e2191610e1b610e0b565b91610de9565b565b5b818110610e2f575050565b80610e3c5f600193610e0f565b01610e24565b9190601f8111610e52575b505050565b610e5e610e8393610599565b906020610e6a84610d97565b83019310610e8b575b610e7c90610d97565b0190610e23565b5f8080610e4d565b9150610e7c81929050610e73565b1c90565b90610ead905f1990600802610e99565b191690565b81610ebc91610e9d565b906002021790565b90610ece81610297565b9067ffffffffffffffff8211610f8e57610ef282610eec855461056f565b85610e42565b602090601f8311600114610f2657918091610f15935f92610f1a575b5050610eb2565b90555b565b90915001515f80610f0e565b601f19831691610f3585610599565b925f5b818110610f7657509160029391856001969410610f5c575b50505002019055610f18565b610f6c910151601f841690610e9d565b90555f8080610f50565b91936020600181928787015181550195019201610f38565b6100bc565b90610f9d91610ec4565b565b610fa990516102f8565b90565b90610fc1610fbc610fc892610dca565b610de6565b8254610ccb565b9055565b610fd69051610308565b90565b90610fe560ff91610c86565b9181191691161790565b610ff890610308565b90565b90565b9061101361100e61101a92610fef565b610ffb565b8254610fd9565b9055565b906110c660c060066110cc946110415f820161103b5f8801610d93565b90610f93565b61105a6001820161105460208801610d93565b90610f93565b6110736002820161106d60408801610f9f565b90610fac565b61108c6003820161108660608801610f9f565b90610fac565b6110a56004820161109f60808801610f9f565b90610fac565b6110be600582016110b860a08801610fcc565b90610ffe565b019201610d93565b90610f93565b565b906110d89161101e565b565b906111b5610100600e6111bb946110fe5f82016110f85f8801610cbe565b90610ced565b6111176001820161111160208801610d0d565b90610d6f565b6111306002820161112a60408801610d8f565b906110ce565b6111496009820161114360608801610d93565b90610f93565b611162600a820161115c60808801610f9f565b90610fac565b61117b600b820161117560a08801610fcc565b90610ffe565b611194600c820161118e60c08801610cbe565b90610ced565b6111ad600d82016111a760e08801610d93565b90610f93565b019201610d93565b90610f93565b565b906111c7916110da565b565b6111d660076020926108ac565b6111df81610c38565b0190565b979261128799959661124c61124161126a976112326112789c96611256968f6112256112609b61121b6101408401955f850190610804565b6020830190610811565b60408184039101526108b5565b908d60608184039101526108b5565b9860808c01906108e6565b60a08a01906108e6565b60c08801906108e6565b60e08601906108f3565b8382036101008501526108b5565b906101208183039101526111c9565b90565b929093919495611298610b2d565b5033848691426112a6610072565b93849360208501936112b794610baa565b6020820181038252036112ca90826100d0565b6112d381610be3565b906112dd90610bdd565b2096848688858790859287946112f1610be7565b965f8801906112ff9161065d565b602087019061130d9161065d565b604086019061131b91610684565b606085019061132991610684565b608084019061133791610684565b60a0830190611345916106b9565b60c08201906113539161065d565b88903390425f915f93611364610bf4565b955f87019061137291610c02565b602086019061138091610c10565b604085019061138e91610c1e565b611396610c78565b60608501906113a49161065d565b60808401906113b291610684565b60a08301906113c0916106b9565b6113c990610c8b565b60c08201906113d791610c02565b6113df610cb3565b60e08201906113ed9161065d565b6113f5610cb3565b6101008201906114049161065d565b5f8961140f916104f0565b90611419916111bd565b87933395969793909192937f9143266aee9ca6d933edddc1f4030d043987ec3aa2eb2056c24f7d014f14223b9861144e610072565b98899861145b988a6111e3565b0390a190565b61147561147061147a92610c83565b610d35565b610273565b90565b61148690611461565b90565b5f7f5265717569736963616f20696e6578697374656e74652e000000000000000000910152565b6114bd60176020926108ac565b6114c681611489565b0190565b6114df9060208101905f8183039101526114b0565b90565b156114e957565b6114f1610072565b62461bcd60e51b815280611507600482016114ca565b0390fd5b90565b60209181520190565b5f5260205f2090565b905f929180549061153a6115338361056f565b809461150e565b916001811690815f146115915750600114611555575b505050565b6115629192939450611517565b915f925b81841061157957505001905f8080611550565b60018160209295939554848601520191019290611566565b92949550505060ff19168252151560200201905f8080611550565b906115b691611520565b90565b906115d96115d2926115c9610072565b938480926115ac565b03836100d0565b565b6115e4906115b9565b90565b6115ef610c5f565b90565b5f7f5265717569736963616f206a6120666f692070726f636573736164612e000000910152565b611626601d6020926108ac565b61162f816115f2565b0190565b6116489060208101905f818303910152611619565b90565b1561165257565b61165a610072565b62461bcd60e51b81528061167060048201611633565b0390fd5b9190601f8111611684575b505050565b6116906116b593611517565b90602061169c84610d97565b830193106116bd575b6116ae90610d97565b0190610e23565b5f808061167f565b91506116ae819290506116a5565b6116e060086116da835461056f565b83611674565b60107f617070726f766564000000000000000000000000000000000000000000000000019055565b611711906116cb565b565b92906117499161173c611757969461173260808801945f890190610804565b6020870190610804565b84820360408601526108b5565b9160608184039101526108b5565b90565b6118789061179861177760016117715f85906104f0565b0161054e565b61179161178b6117865f61147d565b61027e565b9161027e565b14156114e2565b6117fe6117b96117b460096117ae5f86906104f0565b0161150b565b6115db565b6117cb6117c582610be3565b91610bdd565b206117f86117f26117da6115e7565b6117ec6117e682610be3565b91610bdd565b20610084565b91610084565b1461164b565b611814600961180e5f84906104f0565b01611708565b61182b83600c6118255f85906104f0565b01610ced565b61184284600d61183c5f85906104f0565b01610f93565b9192937f9a3444616f7a6a8dcaf3d65958df18f80850f1037f1fc673060c4ca37d874f279461186f610072565b94859485611713565b0390a1565b611892600861188c835461056f565b83611674565b60107f72656a6563746564000000000000000000000000000000000000000000000000019055565b6118c39061187d565b565b6119e3906119036118e260016118dc5f85906104f0565b0161054e565b6118fc6118f66118f15f61147d565b61027e565b9161027e565b14156114e2565b61196961192461191f60096119195f86906104f0565b0161150b565b6115db565b61193661193082610be3565b91610bdd565b2061196361195d6119456115e7565b61195761195182610be3565b91610bdd565b20610084565b91610084565b1461164b565b61197f60096119795f84906104f0565b016118ba565b61199684600d6119905f85906104f0565b01610f93565b6119ad83600c6119a75f85906104f0565b01610ced565b9192937f52148154e20f62caaa17a72a0d917db13b90178a9a4ea232a87426d9be5d2ae8946119da610072565b94859485611713565b0390a1565b6119f36101206100f9565b90565b5f90565b5f90565b606090565b5f90565b5f90565b611a136106c7565b90602080808080808088611a256119fe565b815201611a306119fe565b815201611a3b611a03565b815201611a46611a03565b815201611a51611a03565b815201611a5c611a07565b815201611a676119fe565b81525050565b611a75611a0b565b90565b611a806119e8565b90602080808080808080808a611a946119f6565b815201611a9f6119fa565b815201611aaa611a6d565b815201611ab56119fe565b815201611ac0611a03565b815201611acb611a07565b815201611ad66119f6565b815201611ae16119fe565b815201611aec6119fe565b81525050565b611afa611a78565b90565b90611bdd611bd3600e611b0e6119e8565b94611b25611b1d5f8301610522565b5f8801610c02565b611b3d611b346001830161054e565b60208801610c10565b611b55611b4c600283016106d4565b60408801610c1e565b611b6d611b646009830161063b565b6060880161065d565b611b85611b7c600a8301610677565b60808801610684565b611b9d611b94600b83016106ac565b60a088016106b9565b611bb5611bac600c8301610522565b60c08801610c02565b611bcd611bc4600d830161063b565b60e0880161065d565b0161063b565b610100840161065d565b565b611be890611afd565b90565b611c01611c0691611bfa611af2565b505f6104f0565b611bdf565b9056fea26469706673582212202d027d7da0b13bbf9f78dd6e862be54c5a71ebd6d2cf933aa61b2e13aa50074864736f6c63430008150033",
  "immutableReferences": {},
  "source": "// SPDX-License-Identifier: MIT\r\npragma solidity ^0.8.20;\r\n\r\ncontract MEICANRequestManager {\r\n    struct CircuitParams {\r\n        string source;\r\n        string destination;\r\n        uint bandwidth;\r\n        uint startTime;\r\n        uint endTime;\r\n        bool recurring;\r\n        string path;\r\n    }\r\n    \r\n    struct CircuitRequest {\r\n        bytes32 id;\r\n        address requester;\r\n        CircuitParams params;\r\n        string status;\r\n        uint timestamp;\r\n        bool approved;\r\n        bytes32 policyHash; \r\n        string policyLink;\r\n        string encryptedAESKey;\r\n    }\r\n    \r\n    mapping(bytes32 => CircuitRequest) public requests;\r\n    \r\n    event CircuitRequested(\r\n        bytes32 id,\r\n        address requester,\r\n        string source,\r\n        string destination,\r\n        uint bandwidth,\r\n        uint startTime,\r\n        uint endTime,\r\n        bool recurring,\r\n        string path,\r\n        string status\r\n    );\r\n    \r\n    event CircuitApproved(\r\n        bytes32 id, \r\n        bytes32 policyHash,\r\n        string policyLink,\r\n        string encryptedAESKey\r\n    );\r\n    \r\n    event CircuitRejected(\r\n        bytes32 id, \r\n        bytes32 policyHash,\r\n        string policyLink,\r\n        string encryptedAESKey\r\n    );\r\n    \r\n    function requestCircuit(\r\n        string memory source,\r\n        string memory destination,\r\n        uint bandwidth,\r\n        uint startTime,\r\n        uint endTime,\r\n        bool recurring,\r\n        string memory path\r\n    ) public returns (bytes32) {\r\n        bytes32 requestId = keccak256(abi.encodePacked(msg.sender, source, destination, block.timestamp));\r\n        \r\n        CircuitParams memory params = CircuitParams(\r\n            source, destination, bandwidth, startTime, endTime, recurring, path\r\n        );\r\n\r\n        requests[requestId] = CircuitRequest(\r\n            requestId, msg.sender, params, \"pending\", block.timestamp, false, 0,'',''\r\n        );\r\n        \r\n        emit CircuitRequested(\r\n                requestId,\r\n                msg.sender,\r\n                source,\r\n                destination,\r\n                bandwidth,\r\n                startTime,\r\n                endTime,\r\n                recurring,\r\n                path,\r\n                \"pending\");\r\n\r\n        return requestId;\r\n    }\r\n    \r\n    function approveCircuit(\r\n        bytes32 id,\r\n        bytes32 policyHash,\r\n        string memory policyLink,\r\n        string memory encryptedAESKey\r\n    ) public {\r\n        require(requests[id].requester != address(0), \"Requisicao inexistente.\");\r\n        require(\r\n            keccak256(bytes(requests[id].status)) == keccak256(bytes(\"pending\")),\r\n            \"Requisicao ja foi processada.\"\r\n        );\r\n\r\n        requests[id].status = \"approved\";\r\n        requests[id].policyHash = policyHash;\r\n        requests[id].policyLink = policyLink;\r\n\r\n        emit CircuitApproved(id, policyHash, policyLink, encryptedAESKey);\r\n    }\r\n    \r\n    function rejectCircuit(        \r\n        bytes32 id,\r\n        bytes32 policyHash,\r\n        string memory policyLink,\r\n        string memory encryptedAESKey\r\n    ) public {\r\n        require(requests[id].requester != address(0), \"Requisicao inexistente.\");\r\n        require(\r\n            keccak256(bytes(requests[id].status)) == keccak256(bytes(\"pending\")),\r\n            \"Requisicao ja foi processada.\"\r\n        );\r\n        requests[id].status = \"rejected\";\r\n        requests[id].policyLink = policyLink;\r\n        requests[id].policyHash = policyHash;\r\n\r\n        emit CircuitRejected(id, policyHash, policyLink, encryptedAESKey);\r\n    }\r\n    \r\n    function getCircuitRequest(bytes32 _id) public view returns (CircuitRequest memory) {\r\n        return requests[_id];\r\n    }\r\n\r\n}\r\n",
  "sourcePath": "/home/gess-desktop/Desktop/TCC/meican-smart-contract-api/contracts/MEICANRequestManager.sol",
  "compiler": {
    "name": "solc",
    "version": "0.8.21+commit.d9974bed.Emscripten.clang"
  },
  "schemaVersion": "3.4.16",
  "updatedAt": "2025-04-03T05:09:07.203Z",
  "networkType": "ethereum",
  "devdoc": {
    "kind": "dev",
    "methods": {},
    "version": 1
  },
  "userdoc": {
    "kind": "user",
    "methods": {},
    "version": 1
  }
}