{
  "contractName": "MEICANRequestManager",
  "abi": [
    {
      "anonymous": false,
      "inputs": [
        {
          "indexed": false,
          "internalType": "bytes32",
          "name": "id",
          "type": "bytes32"
        },
        {
          "indexed": false,
          "internalType": "bytes32",
          "name": "policyHash",
          "type": "bytes32"
        },
        {
          "indexed": false,
          "internalType": "string",
          "name": "policyLink",
          "type": "string"
        }
      ],
      "name": "CircuitApproved",
      "type": "event"
    },
    {
      "anonymous": false,
      "inputs": [
        {
          "indexed": false,
          "internalType": "bytes32",
          "name": "id",
          "type": "bytes32"
        },
        {
          "indexed": false,
          "internalType": "bytes32",
          "name": "policyHash",
          "type": "bytes32"
        },
        {
          "indexed": false,
          "internalType": "string",
          "name": "policyLink",
          "type": "string"
        }
      ],
      "name": "CircuitRejected",
      "type": "event"
    },
    {
      "anonymous": false,
      "inputs": [
        {
          "indexed": false,
          "internalType": "bytes32",
          "name": "id",
          "type": "bytes32"
        },
        {
          "indexed": false,
          "internalType": "address",
          "name": "requester",
          "type": "address"
        },
        {
          "indexed": false,
          "internalType": "string",
          "name": "source",
          "type": "string"
        },
        {
          "indexed": false,
          "internalType": "string",
          "name": "destination",
          "type": "string"
        },
        {
          "indexed": false,
          "internalType": "uint256",
          "name": "bandwidth",
          "type": "uint256"
        },
        {
          "indexed": false,
          "internalType": "uint256",
          "name": "startTime",
          "type": "uint256"
        },
        {
          "indexed": false,
          "internalType": "uint256",
          "name": "endTime",
          "type": "uint256"
        },
        {
          "indexed": false,
          "internalType": "bool",
          "name": "recurring",
          "type": "bool"
        },
        {
          "indexed": false,
          "internalType": "string",
          "name": "path",
          "type": "string"
        },
        {
          "indexed": false,
          "internalType": "string",
          "name": "userPublicKey",
          "type": "string"
        },
        {
          "indexed": false,
          "internalType": "int8",
          "name": "status",
          "type": "int8"
        }
      ],
      "name": "CircuitRequested",
      "type": "event"
    },
    {
      "inputs": [],
      "name": "STATUS_APPROVED",
      "outputs": [
        {
          "internalType": "int8",
          "name": "",
          "type": "int8"
        }
      ],
      "stateMutability": "view",
      "type": "function",
      "constant": true
    },
    {
      "inputs": [],
      "name": "STATUS_PENDING",
      "outputs": [
        {
          "internalType": "int8",
          "name": "",
          "type": "int8"
        }
      ],
      "stateMutability": "view",
      "type": "function",
      "constant": true
    },
    {
      "inputs": [],
      "name": "STATUS_REJECTED",
      "outputs": [
        {
          "internalType": "int8",
          "name": "",
          "type": "int8"
        }
      ],
      "stateMutability": "view",
      "type": "function",
      "constant": true
    },
    {
      "inputs": [
        {
          "internalType": "bytes32",
          "name": "",
          "type": "bytes32"
        }
      ],
      "name": "requests",
      "outputs": [
        {
          "internalType": "bytes32",
          "name": "id",
          "type": "bytes32"
        },
        {
          "internalType": "address",
          "name": "requester",
          "type": "address"
        },
        {
          "components": [
            {
              "internalType": "string",
              "name": "source",
              "type": "string"
            },
            {
              "internalType": "string",
              "name": "destination",
              "type": "string"
            },
            {
              "internalType": "uint256",
              "name": "bandwidth",
              "type": "uint256"
            },
            {
              "internalType": "uint256",
              "name": "startTime",
              "type": "uint256"
            },
            {
              "internalType": "uint256",
              "name": "endTime",
              "type": "uint256"
            },
            {
              "internalType": "bool",
              "name": "recurring",
              "type": "bool"
            },
            {
              "internalType": "string",
              "name": "path",
              "type": "string"
            },
            {
              "internalType": "string",
              "name": "userPublicKey",
              "type": "string"
            }
          ],
          "internalType": "struct MEICANRequestManager.CircuitParams",
          "name": "params",
          "type": "tuple"
        },
        {
          "internalType": "int8",
          "name": "status",
          "type": "int8"
        },
        {
          "internalType": "uint256",
          "name": "timestamp",
          "type": "uint256"
        },
        {
          "internalType": "bool",
          "name": "approved",
          "type": "bool"
        },
        {
          "internalType": "bytes32",
          "name": "policyHash",
          "type": "bytes32"
        },
        {
          "internalType": "string",
          "name": "policyLink",
          "type": "string"
        }
      ],
      "stateMutability": "view",
      "type": "function",
      "constant": true
    },
    {
      "inputs": [
        {
          "internalType": "string",
          "name": "source",
          "type": "string"
        },
        {
          "internalType": "string",
          "name": "destination",
          "type": "string"
        },
        {
          "internalType": "uint256",
          "name": "bandwidth",
          "type": "uint256"
        },
        {
          "internalType": "uint256",
          "name": "startTime",
          "type": "uint256"
        },
        {
          "internalType": "uint256",
          "name": "endTime",
          "type": "uint256"
        },
        {
          "internalType": "bool",
          "name": "recurring",
          "type": "bool"
        },
        {
          "internalType": "string",
          "name": "path",
          "type": "string"
        },
        {
          "internalType": "string",
          "name": "userPublicKey",
          "type": "string"
        }
      ],
      "name": "requestCircuit",
      "outputs": [
        {
          "internalType": "bytes32",
          "name": "",
          "type": "bytes32"
        }
      ],
      "stateMutability": "nonpayable",
      "type": "function"
    },
    {
      "inputs": [
        {
          "internalType": "bytes32",
          "name": "id",
          "type": "bytes32"
        },
        {
          "internalType": "bytes32",
          "name": "policyHash",
          "type": "bytes32"
        },
        {
          "internalType": "string",
          "name": "policyLink",
          "type": "string"
        }
      ],
      "name": "approveCircuit",
      "outputs": [],
      "stateMutability": "nonpayable",
      "type": "function"
    },
    {
      "inputs": [
        {
          "internalType": "bytes32",
          "name": "id",
          "type": "bytes32"
        },
        {
          "internalType": "bytes32",
          "name": "policyHash",
          "type": "bytes32"
        },
        {
          "internalType": "string",
          "name": "policyLink",
          "type": "string"
        }
      ],
      "name": "rejectCircuit",
      "outputs": [],
      "stateMutability": "nonpayable",
      "type": "function"
    },
    {
      "inputs": [
        {
          "internalType": "bytes32",
          "name": "_id",
          "type": "bytes32"
        }
      ],
      "name": "getCircuitRequest",
      "outputs": [
        {
          "components": [
            {
              "internalType": "bytes32",
              "name": "id",
              "type": "bytes32"
            },
            {
              "internalType": "address",
              "name": "requester",
              "type": "address"
            },
            {
              "components": [
                {
                  "internalType": "string",
                  "name": "source",
                  "type": "string"
                },
                {
                  "internalType": "string",
                  "name": "destination",
                  "type": "string"
                },
                {
                  "internalType": "uint256",
                  "name": "bandwidth",
                  "type": "uint256"
                },
                {
                  "internalType": "uint256",
                  "name": "startTime",
                  "type": "uint256"
                },
                {
                  "internalType": "uint256",
                  "name": "endTime",
                  "type": "uint256"
                },
                {
                  "internalType": "bool",
                  "name": "recurring",
                  "type": "bool"
                },
                {
                  "internalType": "string",
                  "name": "path",
                  "type": "string"
                },
                {
                  "internalType": "string",
                  "name": "userPublicKey",
                  "type": "string"
                }
              ],
              "internalType": "struct MEICANRequestManager.CircuitParams",
              "name": "params",
              "type": "tuple"
            },
            {
              "internalType": "int8",
              "name": "status",
              "type": "int8"
            },
            {
              "internalType": "uint256",
              "name": "timestamp",
              "type": "uint256"
            },
            {
              "internalType": "bool",
              "name": "approved",
              "type": "bool"
            },
            {
              "internalType": "bytes32",
              "name": "policyHash",
              "type": "bytes32"
            },
            {
              "internalType": "string",
              "name": "policyLink",
              "type": "string"
            }
          ],
          "internalType": "struct MEICANRequestManager.CircuitRequest",
          "name": "",
          "type": "tuple"
        }
      ],
      "stateMutability": "view",
      "type": "function",
      "constant": true
    }
  ],
  "bytecode": "0x60806040523461001f57610011610024565b611be861002f8239611be890f35b61002a565b60405190565b5f80fdfe60806040526004361015610013575b610d0e565b61001d5f3561009c565b806317811bc114610097578063311fd996146100925780633a6c66041461008d578063423d487c14610088578063635e5fe61461008357806365bc1e471461007e5780639d866985146100795763b996de660361000e57610cd9565b610c63565b610756565b610722565b610697565b61062c565b610582565b610322565b60e01c90565b60405190565b5f80fd5b5f80fd5b5f80fd5b90565b6100c0816100b4565b036100c757565b5f80fd5b905035906100d8826100b7565b565b906020828203126100f3576100f0915f016100cb565b90565b6100ac565b610101906100b4565b9052565b60018060a01b031690565b61011990610105565b90565b61012590610110565b9052565b5190565b60209181520190565b5f5b838110610148575050905f910152565b806020918301518185015201610138565b601f801991011690565b61018261018b6020936101909361017981610129565b9384809361012d565b95869101610136565b610159565b0190565b90565b6101a090610194565b9052565b151590565b6101b2906101a4565b9052565b6102579160e06102466101ec6101da61010085015f8701518682035f880152610163565b60208601518582036020870152610163565b6101fe60408601516040860190610197565b61021060608601516060860190610197565b61022260808601516080860190610197565b61023460a086015160a08601906101a9565b60c085015184820360c0860152610163565b9201519060e0818403910152610163565b90565b5f0b90565b6102689061025a565b9052565b6103079160e06102ae610100830161028a5f8601515f8601906100f8565b61029c6020860151602086019061011c565b604085015184820360408601526101b6565b926102c16060820151606085019061025f565b6102d360808201516080850190610197565b6102e560a082015160a08501906101a9565b6102f760c082015160c08501906100f8565b01519060e0818403910152610163565b90565b61031f9160208201915f81840391015261026c565b90565b346103525761034e61033d6103383660046100da565b611b94565b6103456100a2565b9182918261030a565b0390f35b6100a8565b5f80fd5b5f80fd5b634e487b7160e01b5f52604160045260245ffd5b9061037d90610159565b810190811067ffffffffffffffff82111761039757604052565b61035f565b906103af6103a86100a2565b9283610373565b565b67ffffffffffffffff81116103cf576103cb602091610159565b0190565b61035f565b90825f939282370152565b909291926103f46103ef826103b1565b61039c565b938185526020850190828401116104105761040e926103d4565b565b61035b565b9080601f8301121561043357816020610430933591016103df565b90565b610357565b61044181610194565b0361044857565b5f80fd5b9050359061045982610438565b565b610464816101a4565b0361046b57565b5f80fd5b9050359061047c8261045b565b565b9190916101008184031261055b575f81013567ffffffffffffffff811161055657836104ab918301610415565b92602082013567ffffffffffffffff811161055157816104cc918401610415565b926104da826040850161044c565b926104e8836060830161044c565b926104f6816080840161044c565b926105048260a0850161046f565b9260c081013567ffffffffffffffff811161054c5783610525918301610415565b9260e082013567ffffffffffffffff8111610547576105449201610415565b90565b6100b0565b6100b0565b6100b0565b6100b0565b6100ac565b610569906100b4565b9052565b9190610580905f60208501940190610560565b565b346105bc576105b86105a761059836600461047e565b9695909594919493929361146d565b6105af6100a2565b9182918261056d565b0390f35b6100a8565b5f9103126105cb57565b6100ac565b90565b90565b6105ea6105e56105ef926105d0565b6105d3565b61025a565b90565b6105fc5f196105d6565b90565b6106076105f2565b90565b6106139061025a565b9052565b919061062a905f6020850194019061060a565b565b3461065c5761063c3660046105c1565b6106586106476105ff565b61064f6100a2565b91829182610617565b0390f35b6100a8565b90565b61067861067361067d92610661565b6105d3565b61025a565b90565b6106895f610664565b90565b610694610680565b90565b346106c7576106a73660046105c1565b6106c36106b261068c565b6106ba6100a2565b91829182610617565b0390f35b6100a8565b91606083830312610718576106e3825f85016100cb565b926106f183602083016100cb565b92604082013567ffffffffffffffff8111610713576107109201610415565b90565b6100b0565b6100ac565b5f0190565b346107515761073b6107353660046106cc565b916117a8565b6107436100a2565b8061074d8161071d565b0390f35b6100a8565b346107855761076f6107693660046106cc565b916118a7565b6107776100a2565b806107818161071d565b0390f35b6100a8565b610793906100b4565b90565b906107a09061078a565b5f5260205260405f2090565b5f1c90565b90565b6107c06107c5916107ac565b6107b1565b90565b6107d290546107b4565b90565b60018060a01b031690565b6107ec6107f1916107ac565b6107d5565b90565b6107fe90546107e0565b90565b634e487b7160e01b5f52602260045260245ffd5b9060016002830492168015610835575b602083101461083057565b610801565b91607f1691610825565b5f5260205f2090565b905f929180549061086261085b83610815565b809461012d565b916001811690815f146108b9575060011461087d575b505050565b61088a919293945061083f565b915f925b8184106108a157505001905f8080610878565b6001816020929593955484860152019101929061088e565b92949550505060ff19168252151560200201905f8080610878565b906108de91610848565b90565b906109016108fa926108f16100a2565b938480926108d4565b0383610373565b565b52565b90565b61091561091a916107ac565b610906565b90565b6109279054610909565b90565b9061093490610194565b9052565b60ff1690565b61094a61094f916107ac565b610938565b90565b61095c905461093e565b90565b90610969906101a4565b9052565b61097861010061039c565b90565b90610a42610a39600761098c61096d565b946109a361099b5f83016108e1565b5f8801610903565b6109bb6109b2600183016108e1565b60208801610903565b6109d36109ca6002830161091d565b6040880161092a565b6109eb6109e26003830161091d565b6060880161092a565b610a036109fa6004830161091d565b6080880161092a565b610a1b610a1260058301610952565b60a0880161095f565b610a33610a2a600683016108e1565b60c08801610903565b016108e1565b60e08401610903565b565b5f0b90565b610a55610a5a916107ac565b610a44565b90565b610a679054610a49565b90565b610a74905f610796565b90610a805f83016107c8565b91610a8d600182016107f4565b91610a9a6002830161097b565b91610aa7600a8201610a5d565b91610ab4600b830161091d565b91610ac1600c8201610952565b91610ada600e610ad3600d85016107c8565b93016108e1565b90565b610ae690610110565b9052565b610b8b9160e0610b7a610b20610b0e61010085015f8701518682035f880152610163565b60208601518582036020870152610163565b610b3260408601516040860190610197565b610b4460608601516060860190610197565b610b5660808601516080860190610197565b610b6860a086015160a08601906101a9565b60c085015184820360c0860152610163565b9201519060e0818403910152610163565b90565b610b9790610194565b9052565b610ba4906101a4565b9052565b60209181520190565b610bd0610bd9602093610bde93610bc781610129565b93848093610ba8565b95869101610136565b610159565b0190565b94610c3f90610c35610c2a88610c53989b97610c1d610c4998610c609f9d98610c13905f6101008701960190610560565b60208d0190610add565b8a820360408c0152610aea565b99606089019061060a565b6080870190610b8e565b60a0850190610b9b565b60c0830190610560565b60e0818403910152610bb1565b90565b34610c9d57610c99610c7e610c793660046100da565b610a6a565b94610c909896989491949392936100a2565b98899889610be2565b0390f35b6100a8565b90565b610cb9610cb4610cbe92610ca2565b6105d3565b61025a565b90565b610ccb6001610ca5565b90565b610cd6610cc1565b90565b34610d0957610ce93660046105c1565b610d05610cf4610cce565b610cfc6100a2565b91829182610617565b0390f35b6100a8565b5f80fd5b5f90565b60601b90565b610d2590610d16565b90565b610d3190610d1c565b90565b610d40610d4591610110565b610d28565b9052565b905090565b610d73610d6a92602092610d6181610129565b94858093610d49565b93849101610136565b0190565b90565b610d86610d8b91610194565b610d77565b9052565b92610db1610dbe93601486610daa60209998610db797610d34565b0190610d4e565b90610d4e565b8092610d7a565b0190565b60200190565b5190565b610dd761010061039c565b90565b610de561010061039c565b90565b90610df2906100b4565b9052565b90610e0090610110565b9052565b52565b90610e119061025a565b9052565b5f1b90565b610e2e610e29610e3392610661565b610e15565b6100b4565b90565b90610e48610e43836103b1565b61039c565b918252565b610e565f610e36565b90565b610e61610e4d565b90565b610e6e90516100b4565b90565b90610e7d5f1991610e15565b9181191691161790565b610e90906107ac565b90565b90610ea8610ea3610eaf9261078a565b610e87565b8254610e71565b9055565b610ebd9051610110565b90565b90610ed160018060a01b0391610e15565b9181191691161790565b610eef610eea610ef492610105565b6105d3565b610105565b90565b610f0090610edb565b90565b610f0c90610ef7565b90565b90565b90610f27610f22610f2e92610f03565b610f0f565b8254610ec0565b9055565b5190565b5190565b601f602091010490565b1b90565b91906008610f63910291610f5d5f1984610f44565b92610f44565b9181191691161790565b610f81610f7c610f8692610194565b6105d3565b610194565b90565b90565b9190610fa2610f9d610faa93610f6d565b610f89565b908354610f48565b9055565b5f90565b610fc491610fbe610fae565b91610f8c565b565b5b818110610fd2575050565b80610fdf5f600193610fb2565b01610fc7565b9190601f8111610ff5575b505050565b6110016110269361083f565b90602061100d84610f3a565b8301931061102e575b61101f90610f3a565b0190610fc6565b5f8080610ff0565b915061101f81929050611016565b1c90565b90611050905f199060080261103c565b191690565b8161105f91611040565b906002021790565b9061107181610129565b9067ffffffffffffffff8211611131576110958261108f8554610815565b85610fe5565b602090601f83116001146110c9579180916110b8935f926110bd575b5050611055565b90555b565b90915001515f806110b1565b601f198316916110d88561083f565b925f5b818110611119575091600293918560019694106110ff575b505050020190556110bb565b61110f910151601f841690611040565b90555f80806110f3565b919360206001819287870151815501950192016110db565b61035f565b9061114091611067565b565b61114c9051610194565b90565b9061116461115f61116b92610f6d565b610f89565b8254610e71565b9055565b61117990516101a4565b90565b9061118860ff91610e15565b9181191691161790565b61119b906101a4565b90565b90565b906111b66111b16111bd92611192565b61119e565b825461117c565b9055565b9061128260e06007611288946111e45f82016111de5f8801610f36565b90611136565b6111fd600182016111f760208801610f36565b90611136565b6112166002820161121060408801611142565b9061114f565b61122f6003820161122960608801611142565b9061114f565b6112486004820161124260808801611142565b9061114f565b6112616005820161125b60a0880161116f565b906111a1565b61127a6006820161127460c08801610f36565b90611136565b019201610f36565b90611136565b565b90611294916111c1565b565b6112a0905161025a565b90565b6112b76112b26112bc9261025a565b6105d3565b61025a565b90565b90565b906112d76112d26112de926112a3565b6112bf565b825461117c565b9055565b906113a360e0600e6113a9946113055f82016112ff5f8801610e64565b90610e93565b61131e6001820161131860208801610eb3565b90610f12565b6113376002820161133160408801610f32565b9061128a565b611350600a820161134a60608801611296565b906112c2565b611369600b820161136360808801611142565b9061114f565b611382600c820161137c60a0880161116f565b906111a1565b61139b600d820161139560c08801610e64565b90610e93565b019201610f36565b90611136565b565b906113b5916112e2565b565b9b9a98926114639760c08e61143561146b9e9a61142b6114206101409f989b6114126114549e9d61143c9a6114056114469e6113fb6101608c01945f8d0190610560565b60208b0190610add565b88820360408a0152610bb1565b908682036060880152610bb1565b9a6080850190610b8e565b60a0830190610b8e565b0190610b8e565b60e08c0190610b9b565b8982036101008b0152610bb1565b90878203610120890152610bb1565b94019061060a565b565b9390949291959661147c610d12565b50338587914261148a6100a2565b938493602085019361149b94610d8f565b6020820181038252036114ae9082610373565b6114b781610dc8565b906114c190610dc2565b209785878986868991869388956114d6610dcc565b975f8901906114e491610903565b60208801906114f291610903565b60408701906115009161092a565b606086019061150e9161092a565b608085019061151c9161092a565b60a084019061152a9161095f565b60c083019061153891610903565b60e082019061154691610903565b89903390611552610680565b42905f925f94611560610dda565b965f88019061156e91610de8565b602087019061157c91610df6565b604086019061158a91610e04565b606085019061159891610e07565b60808401906115a69161092a565b60a08301906115b49161095f565b6115bd90610e1a565b60c08201906115cb91610de8565b6115d3610e59565b60e08201906115e191610903565b5f8a6115ec91610796565b906115f6916113ab565b88943396979894939091929361160a610680565b957f12cbb68edddbcf14a0f29b2ff2980f30bf1204adb47cefc2d4b049183ec7b7c59a6116356100a2565b9a8b9a6116429a8c6113b7565b0390a190565b61165c61165761166192610661565b6105d3565b610105565b90565b61166d90611648565b90565b5f7f5265717569736963616f20696e6578697374656e74652e000000000000000000910152565b6116a46017602092610ba8565b6116ad81611670565b0190565b6116c69060208101905f818303910152611697565b90565b156116d057565b6116d86100a2565b62461bcd60e51b8152806116ee600482016116b1565b0390fd5b5f7f5265717569736963616f206a6120666f692070726f636573736164612e000000910152565b611726601d602092610ba8565b61172f816116f2565b0190565b6117489060208101905f818303910152611719565b90565b1561175257565b61175a6100a2565b62461bcd60e51b81528061177060048201611733565b0390fd5b6117986117a594929361178e60608401955f850190610560565b6020830190610560565b6040818403910152610bb1565b90565b9190916117e56117c460016117be5f8590610796565b016107f4565b6117de6117d86117d35f611664565b610110565b91610110565b14156116c9565b61181d6117fe600a6117f85f8590610796565b01610a5d565b61181761181161180c610680565b61025a565b9161025a565b1461174b565b61183b611828610cc1565b600a6118355f8590610796565b016112c2565b61185283600d61184c5f8590610796565b01610e93565b61186982600e6118635f8590610796565b01611136565b9190916118a27fc05bb1e7744cdebc5a7a55afea807c9516f7e57714f39d182a5cb7c3f1144349936118996100a2565b93849384611774565b0390a1565b9190916118e46118c360016118bd5f8590610796565b016107f4565b6118dd6118d76118d25f611664565b610110565b91610110565b14156116c9565b61191c6118fd600a6118f75f8590610796565b01610a5d565b61191661191061190b610680565b61025a565b9161025a565b1461174b565b61193a6119276105f2565b600a6119345f8590610796565b016112c2565b61195182600e61194b5f8590610796565b01611136565b61196883600d6119625f8590610796565b01610e93565b9190916119a17ff01663932ee63a34f0d065ac55ebe7860adbb679b2b88099bf5816c76c4e4a38936119986100a2565b93849384611774565b0390a1565b6119b161010061039c565b90565b5f90565b5f90565b606090565b5f90565b5f90565b6119d161096d565b90602080808080808080896119e46119bc565b8152016119ef6119bc565b8152016119fa6119c1565b815201611a056119c1565b815201611a106119c1565b815201611a1b6119c5565b815201611a266119bc565b815201611a316119bc565b81525050565b611a3f6119c9565b90565b5f90565b611a4e6119a6565b9060208080808080808089611a616119b4565b815201611a6c6119b8565b815201611a77611a37565b815201611a82611a42565b815201611a8d6119c1565b815201611a986119c5565b815201611aa36119b4565b815201611aae6119bc565b81525050565b611abc611a46565b90565b90611b86611b7d600e611ad06119a6565b94611ae7611adf5f83016107c8565b5f8801610de8565b611aff611af6600183016107f4565b60208801610df6565b611b17611b0e6002830161097b565b60408801610e04565b611b2f611b26600a8301610a5d565b60608801610e07565b611b47611b3e600b830161091d565b6080880161092a565b611b5f611b56600c8301610952565b60a0880161095f565b611b77611b6e600d83016107c8565b60c08801610de8565b016108e1565b60e08401610903565b565b611b9190611abf565b90565b611baa611baf91611ba3611ab4565b505f610796565b611b88565b9056fea2646970667358221220d484521c27aebfdcc66b64ceb32343cee96d381b41011f809f7c87ab0bcd78da64736f6c63430008150033",
  "immutableReferences": {},
  "source": "// SPDX-License-Identifier: MIT\r\npragma solidity ^0.8.20;\r\n\r\ncontract MEICANRequestManager {\r\n\r\n    int8 public constant STATUS_PENDING = 0;\r\n    int8 public constant STATUS_APPROVED = 1;\r\n    int8 public constant STATUS_REJECTED = -1;  \r\n\r\n    struct CircuitParams {\r\n        string source;\r\n        string destination;\r\n        uint bandwidth;\r\n        uint startTime;\r\n        uint endTime;\r\n        bool recurring;\r\n        string path;\r\n        string userPublicKey;\r\n    }\r\n    \r\n    struct CircuitRequest {\r\n        bytes32 id;\r\n        address requester;\r\n        CircuitParams params;\r\n        int8 status;\r\n        uint timestamp;\r\n        bool approved;\r\n        bytes32 policyHash;\r\n        string policyLink;\r\n    }\r\n    \r\n    mapping(bytes32 => CircuitRequest) public requests;\r\n    \r\n    event CircuitRequested(\r\n        bytes32 id,\r\n        address requester,\r\n        string source,\r\n        string destination,\r\n        uint bandwidth,\r\n        uint startTime,\r\n        uint endTime,\r\n        bool recurring,\r\n        string path,\r\n        string userPublicKey,\r\n        int8 status\r\n    );\r\n    \r\n    event CircuitApproved(\r\n        bytes32 id,\r\n        bytes32 policyHash,\r\n        string policyLink\r\n    );\r\n    \r\n    event CircuitRejected(\r\n        bytes32 id, \r\n        bytes32 policyHash, \r\n        string policyLink\r\n    );\r\n    \r\n    function requestCircuit(\r\n        string memory source,\r\n        string memory destination,\r\n        uint bandwidth,\r\n        uint startTime,\r\n        uint endTime,\r\n        bool recurring,\r\n        string memory path,\r\n        string memory userPublicKey\r\n    ) public returns (bytes32) {\r\n        bytes32 requestId = keccak256(abi.encodePacked(msg.sender, source, destination, block.timestamp));\r\n        \r\n        CircuitParams memory params = CircuitParams(\r\n            source, destination, bandwidth, startTime, endTime, recurring, path, userPublicKey\r\n        );\r\n\r\n        requests[requestId] = CircuitRequest(\r\n            requestId, msg.sender, params, STATUS_PENDING, block.timestamp, false, 0, ''\r\n        );\r\n        \r\n        emit CircuitRequested(\r\n                requestId,\r\n                msg.sender,\r\n                source,\r\n                destination,\r\n                bandwidth,\r\n                startTime,\r\n                endTime,\r\n                recurring,\r\n                path,\r\n                userPublicKey,\r\n                STATUS_PENDING\r\n                );\r\n\r\n        return requestId;\r\n    }\r\n    \r\n    function approveCircuit(\r\n        bytes32 id,\r\n        bytes32 policyHash,\r\n        string memory policyLink\r\n    ) public {\r\n        require(requests[id].requester != address(0), \"Requisicao inexistente.\");\r\n        require(requests[id].status == STATUS_PENDING, \"Requisicao ja foi processada.\");\r\n\r\n\r\n        requests[id].status = STATUS_APPROVED;\r\n        requests[id].policyHash = policyHash;\r\n        requests[id].policyLink = policyLink;\r\n\r\n        emit CircuitApproved(id, policyHash, policyLink);\r\n    }\r\n    \r\n    function rejectCircuit(        \r\n        bytes32 id,\r\n        bytes32 policyHash,\r\n        string memory policyLink\r\n    ) public {\r\n        require(requests[id].requester != address(0), \"Requisicao inexistente.\");\r\n        require(requests[id].status == STATUS_PENDING, \"Requisicao ja foi processada.\");\r\n\r\n        requests[id].status = STATUS_REJECTED;\r\n        requests[id].policyLink = policyLink;\r\n        requests[id].policyHash = policyHash;\r\n\r\n        emit CircuitRejected(id, policyHash, policyLink);\r\n    }\r\n    \r\n    function getCircuitRequest(bytes32 _id) public view returns (CircuitRequest memory) {\r\n        return requests[_id];\r\n    }\r\n\r\n}\r\n",
  "sourcePath": "/home/gess-desktop/Desktop/TCC/meican-smart-contract-api/contracts/MEICANRequestManager.sol",
  "compiler": {
    "name": "solc",
    "version": "0.8.21+commit.d9974bed.Emscripten.clang"
  },
  "schemaVersion": "3.4.16",
  "updatedAt": "2025-04-17T12:01:41.131Z",
  "networkType": "ethereum",
  "devdoc": {
    "kind": "dev",
    "methods": {},
    "version": 1
  },
  "userdoc": {
    "kind": "user",
    "methods": {},
    "version": 1
  }
}