{
  "contractName": "MEICANRequestManager",
  "abi": [
    {
      "anonymous": false,
      "inputs": [
        {
          "indexed": false,
          "internalType": "bytes32",
          "name": "id",
          "type": "bytes32"
        },
        {
          "indexed": false,
          "internalType": "address",
          "name": "requester",
          "type": "address"
        },
        {
          "components": [
            {
              "internalType": "string",
              "name": "source",
              "type": "string"
            },
            {
              "internalType": "string",
              "name": "destination",
              "type": "string"
            },
            {
              "internalType": "uint256",
              "name": "bandwidth",
              "type": "uint256"
            },
            {
              "internalType": "uint256",
              "name": "startTime",
              "type": "uint256"
            },
            {
              "internalType": "uint256",
              "name": "endTime",
              "type": "uint256"
            },
            {
              "internalType": "bool",
              "name": "recurring",
              "type": "bool"
            },
            {
              "internalType": "string",
              "name": "path",
              "type": "string"
            }
          ],
          "indexed": false,
          "internalType": "struct MEICANRequestManager.CircuitParams",
          "name": "params",
          "type": "tuple"
        },
        {
          "indexed": false,
          "internalType": "string",
          "name": "status",
          "type": "string"
        },
        {
          "indexed": false,
          "internalType": "uint256",
          "name": "timestamp",
          "type": "uint256"
        }
      ],
      "name": "CircuitApproved",
      "type": "event"
    },
    {
      "anonymous": false,
      "inputs": [
        {
          "indexed": false,
          "internalType": "bytes32",
          "name": "id",
          "type": "bytes32"
        }
      ],
      "name": "CircuitRejected",
      "type": "event"
    },
    {
      "anonymous": false,
      "inputs": [
        {
          "indexed": false,
          "internalType": "bytes32",
          "name": "id",
          "type": "bytes32"
        },
        {
          "indexed": false,
          "internalType": "address",
          "name": "requester",
          "type": "address"
        },
        {
          "indexed": false,
          "internalType": "string",
          "name": "source",
          "type": "string"
        },
        {
          "indexed": false,
          "internalType": "string",
          "name": "destination",
          "type": "string"
        },
        {
          "indexed": false,
          "internalType": "uint256",
          "name": "bandwidth",
          "type": "uint256"
        },
        {
          "indexed": false,
          "internalType": "uint256",
          "name": "startTime",
          "type": "uint256"
        },
        {
          "indexed": false,
          "internalType": "uint256",
          "name": "endTime",
          "type": "uint256"
        },
        {
          "indexed": false,
          "internalType": "bool",
          "name": "recurring",
          "type": "bool"
        },
        {
          "indexed": false,
          "internalType": "string",
          "name": "path",
          "type": "string"
        },
        {
          "indexed": false,
          "internalType": "string",
          "name": "status",
          "type": "string"
        }
      ],
      "name": "CircuitRequested",
      "type": "event"
    },
    {
      "inputs": [
        {
          "internalType": "bytes32",
          "name": "",
          "type": "bytes32"
        }
      ],
      "name": "requests",
      "outputs": [
        {
          "internalType": "bytes32",
          "name": "id",
          "type": "bytes32"
        },
        {
          "internalType": "address",
          "name": "requester",
          "type": "address"
        },
        {
          "components": [
            {
              "internalType": "string",
              "name": "source",
              "type": "string"
            },
            {
              "internalType": "string",
              "name": "destination",
              "type": "string"
            },
            {
              "internalType": "uint256",
              "name": "bandwidth",
              "type": "uint256"
            },
            {
              "internalType": "uint256",
              "name": "startTime",
              "type": "uint256"
            },
            {
              "internalType": "uint256",
              "name": "endTime",
              "type": "uint256"
            },
            {
              "internalType": "bool",
              "name": "recurring",
              "type": "bool"
            },
            {
              "internalType": "string",
              "name": "path",
              "type": "string"
            }
          ],
          "internalType": "struct MEICANRequestManager.CircuitParams",
          "name": "params",
          "type": "tuple"
        },
        {
          "internalType": "string",
          "name": "status",
          "type": "string"
        },
        {
          "internalType": "uint256",
          "name": "timestamp",
          "type": "uint256"
        },
        {
          "internalType": "bool",
          "name": "approved",
          "type": "bool"
        }
      ],
      "stateMutability": "view",
      "type": "function",
      "constant": true
    },
    {
      "inputs": [
        {
          "internalType": "string",
          "name": "source",
          "type": "string"
        },
        {
          "internalType": "string",
          "name": "destination",
          "type": "string"
        },
        {
          "internalType": "uint256",
          "name": "bandwidth",
          "type": "uint256"
        },
        {
          "internalType": "uint256",
          "name": "startTime",
          "type": "uint256"
        },
        {
          "internalType": "uint256",
          "name": "endTime",
          "type": "uint256"
        },
        {
          "internalType": "bool",
          "name": "recurring",
          "type": "bool"
        },
        {
          "internalType": "string",
          "name": "path",
          "type": "string"
        }
      ],
      "name": "requestCircuit",
      "outputs": [
        {
          "internalType": "bytes32",
          "name": "",
          "type": "bytes32"
        }
      ],
      "stateMutability": "nonpayable",
      "type": "function"
    },
    {
      "inputs": [
        {
          "internalType": "bytes32",
          "name": "_id",
          "type": "bytes32"
        }
      ],
      "name": "approveCircuit",
      "outputs": [],
      "stateMutability": "nonpayable",
      "type": "function"
    },
    {
      "inputs": [
        {
          "internalType": "bytes32",
          "name": "_id",
          "type": "bytes32"
        }
      ],
      "name": "rejectCircuit",
      "outputs": [],
      "stateMutability": "nonpayable",
      "type": "function"
    },
    {
      "inputs": [
        {
          "internalType": "bytes32",
          "name": "_id",
          "type": "bytes32"
        }
      ],
      "name": "getCircuitRequest",
      "outputs": [
        {
          "components": [
            {
              "internalType": "bytes32",
              "name": "id",
              "type": "bytes32"
            },
            {
              "internalType": "address",
              "name": "requester",
              "type": "address"
            },
            {
              "components": [
                {
                  "internalType": "string",
                  "name": "source",
                  "type": "string"
                },
                {
                  "internalType": "string",
                  "name": "destination",
                  "type": "string"
                },
                {
                  "internalType": "uint256",
                  "name": "bandwidth",
                  "type": "uint256"
                },
                {
                  "internalType": "uint256",
                  "name": "startTime",
                  "type": "uint256"
                },
                {
                  "internalType": "uint256",
                  "name": "endTime",
                  "type": "uint256"
                },
                {
                  "internalType": "bool",
                  "name": "recurring",
                  "type": "bool"
                },
                {
                  "internalType": "string",
                  "name": "path",
                  "type": "string"
                }
              ],
              "internalType": "struct MEICANRequestManager.CircuitParams",
              "name": "params",
              "type": "tuple"
            },
            {
              "internalType": "string",
              "name": "status",
              "type": "string"
            },
            {
              "internalType": "uint256",
              "name": "timestamp",
              "type": "uint256"
            },
            {
              "internalType": "bool",
              "name": "approved",
              "type": "bool"
            }
          ],
          "internalType": "struct MEICANRequestManager.CircuitRequest",
          "name": "",
          "type": "tuple"
        }
      ],
      "stateMutability": "view",
      "type": "function",
      "constant": true
    }
  ],
  "bytecode": "0x60806040523461001f57610011610024565b61197a61002f823961197a90f35b61002a565b60405190565b5f80fdfe60806040526004361015610013575b610a0a565b61001d5f3561006c565b80630414946c1461006757806317811bc1146100625780639d8669851461005d578063d300fd09146100585763eea38b570361000e576109ce565b6107f8565b6107bc565b6102dc565b6100cd565b60e01c90565b60405190565b5f80fd5b5f80fd5b5f80fd5b90565b61009081610084565b0361009757565b5f80fd5b905035906100a882610087565b565b906020828203126100c3576100c0915f0161009b565b90565b61007c565b5f0190565b346100fb576100e56100e03660046100aa565b611559565b6100ed610072565b806100f7816100c8565b0390f35b610078565b61010990610084565b9052565b60018060a01b031690565b6101219061010d565b90565b61012d90610118565b9052565b5190565b60209181520190565b5f5b838110610150575050905f910152565b806020918301518185015201610140565b601f801991011690565b61018a6101936020936101989361018181610131565b93848093610135565b9586910161013e565b610161565b0190565b90565b6101a89061019c565b9052565b151590565b6101ba906101ac565b9052565b6102499160c06101f06101de60e084015f8601518582035f87015261016b565b6020850151848203602086015261016b565b926102036040820151604085019061019f565b6102156060820151606085019061019f565b6102276080820151608085019061019f565b61023960a082015160a08501906101b1565b01519060c081840391015261016b565b90565b906102c19060a0806102a461029260c0850161026e5f8901515f880190610100565b61028060208901516020880190610124565b604088015186820360408801526101be565b6060870151858203606087015261016b565b946102b76080820151608086019061019f565b01519101906101b1565b90565b6102d99160208201915f81840391015261024c565b90565b3461030c576103086102f76102f23660046100aa565b611926565b6102ff610072565b918291826102c4565b0390f35b610078565b61031a90610084565b90565b9061032790610311565b5f5260205260405f2090565b5f1c90565b90565b61034761034c91610333565b610338565b90565b610359905461033b565b90565b60018060a01b031690565b61037361037891610333565b61035c565b90565b6103859054610367565b90565b634e487b7160e01b5f52602260045260245ffd5b90600160028304921680156103bc575b60208310146103b757565b610388565b91607f16916103ac565b5f5260205f2090565b905f92918054906103e96103e28361039c565b8094610135565b916001811690815f146104405750600114610404575b505050565b61041191929394506103c6565b915f925b81841061042857505001905f80806103ff565b60018160209295939554848601520191019290610415565b92949550505060ff19168252151560200201905f80806103ff565b90610465916103cf565b90565b634e487b7160e01b5f52604160045260245ffd5b9061048690610161565b810190811067ffffffffffffffff8211176104a057604052565b610468565b906104c56104be926104b5610072565b9384809261045b565b038361047c565b565b52565b90565b6104d96104de91610333565b6104ca565b90565b6104eb90546104cd565b90565b906104f89061019c565b9052565b60ff1690565b61050e61051391610333565b6104fc565b90565b6105209054610502565b90565b9061052d906101ac565b9052565b9061054461053d610072565b928361047c565b565b61055060e0610531565b90565b906106026105f96006610564610546565b9461057b6105735f83016104a5565b5f88016104c7565b61059361058a600183016104a5565b602088016104c7565b6105ab6105a2600283016104e1565b604088016104ee565b6105c36105ba600383016104e1565b606088016104ee565b6105db6105d2600483016104e1565b608088016104ee565b6105f36105ea60058301610516565b60a08801610523565b016104a5565b60c084016104c7565b565b61060e905f61031d565b9061061a5f830161034f565b916106276001820161037b565b9161063460028301610553565b91610641600982016104a5565b9161065a600b610653600a85016104e1565b9301610516565b90565b61066690610084565b9052565b61067390610118565b9052565b6107029160c06106a961069760e084015f8601518582035f87015261016b565b6020850151848203602086015261016b565b926106bc6040820151604085019061019f565b6106ce6060820151606085019061019f565b6106e06080820151608085019061019f565b6106f260a082015160a08501906101b1565b01519060c081840391015261016b565b90565b60209181520190565b61072d61073660209361073b9361072481610131565b93848093610705565b9586910161013e565b610161565b0190565b6107489061019c565b9052565b610755906101ac565b9052565b916107ba9597969461079a6107b39360a09661078d6107a89561078360c08a01945f8b019061065d565b602089019061066a565b8682036040880152610677565b90848203606086015261070e565b96608083019061073f565b019061074c565b565b346107f3576107ef6107d76107d23660046100aa565b610604565b926107e6969496929192610072565b96879687610759565b0390f35b610078565b346108265761081061080b3660046100aa565b61170f565b610818610072565b80610822816100c8565b0390f35b610078565b5f80fd5b5f80fd5b67ffffffffffffffff81116108515761084d602091610161565b0190565b610468565b90825f939282370152565b9092919261087661087182610833565b610531565b938185526020850190828401116108925761089092610856565b565b61082f565b9080601f830112156108b5578160206108b293359101610861565b90565b61082b565b6108c38161019c565b036108ca57565b5f80fd5b905035906108db826108ba565b565b6108e6816101ac565b036108ed57565b5f80fd5b905035906108fe826108dd565b565b9060e0828203126109b4575f82013567ffffffffffffffff81116109af578161092a918401610897565b92602083013567ffffffffffffffff81116109aa578261094b918501610897565b9261095983604083016108ce565b9261096781606084016108ce565b9261097582608085016108ce565b926109838360a083016108f1565b9260c082013567ffffffffffffffff81116109a5576109a29201610897565b90565b610080565b610080565b610080565b61007c565b91906109cc905f6020850194019061065d565b565b34610a0557610a016109f06109e4366004610900565b959490949391936110e8565b6109f8610072565b918291826109b9565b0390f35b610078565b5f80fd5b5f90565b60601b90565b610a2190610a12565b90565b610a2d90610a18565b90565b610a3c610a4191610118565b610a24565b9052565b905090565b610a6f610a6692602092610a5d81610131565b94858093610a45565b9384910161013e565b0190565b90565b610a82610a879161019c565b610a73565b9052565b92610aad610aba93601486610aa660209998610ab397610a30565b0190610a4a565b90610a4a565b8092610a76565b0190565b60200190565b5190565b610ad260e0610531565b90565b610adf60c0610531565b90565b90610aec90610084565b9052565b90610afa90610118565b9052565b52565b90610b13610b0e83610833565b610531565b918252565b5f7f70656e64696e6700000000000000000000000000000000000000000000000000910152565b610b496007610b01565b90610b5660208301610b18565b565b610b60610b3f565b90565b610b6d9051610084565b90565b5f1b90565b90610b815f1991610b70565b9181191691161790565b610b9490610333565b90565b90610bac610ba7610bb392610311565b610b8b565b8254610b75565b9055565b610bc19051610118565b90565b90610bd560018060a01b0391610b70565b9181191691161790565b90565b610bf6610bf1610bfb9261010d565b610bdf565b61010d565b90565b610c0790610be2565b90565b610c1390610bfe565b90565b90565b90610c2e610c29610c3592610c0a565b610c16565b8254610bc4565b9055565b5190565b5190565b601f602091010490565b1b90565b91906008610c6a910291610c645f1984610c4b565b92610c4b565b9181191691161790565b610c88610c83610c8d9261019c565b610bdf565b61019c565b90565b90565b9190610ca9610ca4610cb193610c74565b610c90565b908354610c4f565b9055565b5f90565b610ccb91610cc5610cb5565b91610c93565b565b5b818110610cd9575050565b80610ce65f600193610cb9565b01610cce565b9190601f8111610cfc575b505050565b610d08610d2d936103c6565b906020610d1484610c41565b83019310610d35575b610d2690610c41565b0190610ccd565b5f8080610cf7565b9150610d2681929050610d1d565b1c90565b90610d57905f1990600802610d43565b191690565b81610d6691610d47565b906002021790565b90610d7881610131565b9067ffffffffffffffff8211610e3857610d9c82610d96855461039c565b85610cec565b602090601f8311600114610dd057918091610dbf935f92610dc4575b5050610d5c565b90555b565b90915001515f80610db8565b601f19831691610ddf856103c6565b925f5b818110610e2057509160029391856001969410610e06575b50505002019055610dc2565b610e16910151601f841690610d47565b90555f8080610dfa565b91936020600181928787015181550195019201610de2565b610468565b90610e4791610d6e565b565b610e53905161019c565b90565b90610e6b610e66610e7292610c74565b610c90565b8254610b75565b9055565b610e8090516101ac565b90565b90610e8f60ff91610b70565b9181191691161790565b610ea2906101ac565b90565b90565b90610ebd610eb8610ec492610e99565b610ea5565b8254610e83565b9055565b90610f7060c06006610f7694610eeb5f8201610ee55f8801610c3d565b90610e3d565b610f0460018201610efe60208801610c3d565b90610e3d565b610f1d60028201610f1760408801610e49565b90610e56565b610f3660038201610f3060608801610e49565b90610e56565b610f4f60048201610f4960808801610e49565b90610e56565b610f6860058201610f6260a08801610e76565b90610ea8565b019201610c3d565b90610e3d565b565b90610f8291610ec8565b565b9061101360a0600b61101994610fa75f8201610fa15f8801610b63565b90610b97565b610fc060018201610fba60208801610bb7565b90610c19565b610fd960028201610fd360408801610c39565b90610f78565b610ff260098201610fec60608801610c3d565b90610e3d565b61100b600a820161100560808801610e49565b90610e56565b019201610e76565b90610ea8565b565b9061102591610f84565b565b6110346007602092610705565b61103d81610b18565b0190565b97926110e59995966110aa61109f6110c8976110906110d69c966110b4968f6110836110be9b6110796101408401955f85019061065d565b602083019061066a565b604081840391015261070e565b908d606081840391015261070e565b9860808c019061073f565b60a08a019061073f565b60c088019061073f565b60e086019061074c565b83820361010085015261070e565b90610120818303910152611027565b90565b9290939194956110f6610a0e565b503384869142611104610072565b938493602085019361111594610a8b565b602082018103825203611128908261047c565b61113181610ac4565b9061113b90610abe565b20968486888587908592879461114f610ac8565b965f88019061115d916104c7565b602087019061116b916104c7565b6040860190611179916104ee565b6060850190611187916104ee565b6080840190611195916104ee565b60a08301906111a391610523565b60c08201906111b1916104c7565b8890339042905f926111c1610ad5565b945f8601906111cf91610ae2565b60208501906111dd91610af0565b60408401906111eb91610afe565b6111f3610b58565b6060840190611201916104c7565b608083019061120f916104ee565b60a082019061121d91610523565b5f896112289161031d565b906112329161101b565b87933395969793909192937f9143266aee9ca6d933edddc1f4030d043987ec3aa2eb2056c24f7d014f14223b98611267610072565b988998611274988a611041565b0390a190565b60207f6400000000000000000000000000000000000000000000000000000000000000917f436972637569742068617320616c7265616479206265656e20617070726f76655f8201520152565b6112d46021604092610705565b6112dd8161127a565b0190565b6112f69060208101905f8183039101526112c7565b90565b1561130057565b611308610072565b62461bcd60e51b81528061131e600482016112e1565b0390fd5b90565b5f5260205f2090565b9190601f811161133e575b505050565b61134a61136f93611325565b90602061135684610c41565b83019310611377575b61136890610c41565b0190610ccd565b5f8080611339565b91506113688192905061135f565b61139a6008611394835461039c565b8361132e565b60107f617070726f766564000000000000000000000000000000000000000000000000019055565b6113cb90611385565b565b6114759160066113fd6113ec60e084015f86018582035f8701526103cf565b6001850184820360208601526103cf565b9261141861140e60028301546104cd565b604085019061019f565b61143261142860038301546104cd565b606085019061019f565b61144c61144260048301546104cd565b608085019061019f565b61146661145c6005830154610502565b60a08501906101b1565b019060c08184039101526103cf565b90565b905f929180549061149261148b8361039c565b8094610705565b916001811690815f146114e957506001146114ad575b505050565b6114ba91929394506103c6565b915f925b8184106114d157505001905f80806114a8565b600181602092959395548486015201910192906114be565b92949550505060ff19168252151560200201905f80806114a8565b95949293611541876115579661153460809661152a61154f975f60a0870196019061065d565b60208c019061066a565b89820360408b01526113cd565b908782036060890152611478565b94019061073f565b565b61159761159c91611591611579600b6115735f859061031d565b01610516565b61158b6115855f6101ac565b916101ac565b146112f9565b5f61031d565b611322565b6115aa6001600b8301610ea8565b6115b6600982016113c2565b6115c15f820161034f565b6115cd6001830161037b565b9061161a60028401936115e6600a6009830192016104e1565b907f76332fe41b5f9298c5982275555d1eb773fcb65cad5a54acff1bd85e8db1973495611611610072565b95869586611504565b0390a1565b60207f6564000000000000000000000000000000000000000000000000000000000000917f436972637569742068617320616c7265616479206265656e2070726f636573735f8201520152565b6116796022604092610705565b6116828161161f565b0190565b61169b9060208101905f81830391015261166c565b90565b156116a557565b6116ad610072565b62461bcd60e51b8152806116c360048201611686565b0390fd5b6116dc60086116d6835461039c565b8361132e565b60107f72656a6563746564000000000000000000000000000000000000000000000000019055565b61170d906116c7565b565b611740611728600b6117225f859061031d565b01610516565b61173a6117345f6101ac565b916101ac565b1461169e565b61175660096117505f849061031d565b01611704565b61178c7fbf05ee107eddab54f2e651191eaa69e5d33d641a0d982ee480c6aac19234087991611783610072565b918291826109b9565b0390a1565b61179b60c0610531565b90565b5f90565b5f90565b606090565b5f90565b5f90565b6117bb610546565b906020808080808080886117cd6117a6565b8152016117d86117a6565b8152016117e36117ab565b8152016117ee6117ab565b8152016117f96117ab565b8152016118046117af565b81520161180f6117a6565b81525050565b61181d6117b3565b90565b611828611791565b90602080808080808761183961179e565b8152016118446117a2565b81520161184f611815565b81520161185a6117a6565b8152016118656117ab565b8152016118706117af565b81525050565b61187e611820565b90565b9061191861190f600b611892611791565b946118a96118a15f830161034f565b5f8801610ae2565b6118c16118b86001830161037b565b60208801610af0565b6118d96118d060028301610553565b60408801610afe565b6118f16118e8600983016104a5565b606088016104c7565b611909611900600a83016104e1565b608088016104ee565b01610516565b60a08401610523565b565b61192390611881565b90565b61193c61194191611935611876565b505f61031d565b61191a565b9056fea2646970667358221220619d8f4b2f294c5b857ce80a35eeef84e2d70d6c7db648421374b4147d1576f664736f6c63430008150033",
  "immutableReferences": {},
  "source": "// SPDX-License-Identifier: MIT\r\npragma solidity ^0.8.20;\r\n\r\ncontract MEICANRequestManager {\r\n    struct CircuitParams {\r\n        string source;\r\n        string destination;\r\n        uint bandwidth;\r\n        uint startTime;\r\n        uint endTime;\r\n        bool recurring;\r\n        string path;\r\n    }\r\n    \r\n    struct CircuitRequest {\r\n        bytes32 id;\r\n        address requester;\r\n        CircuitParams params;\r\n        string status;\r\n        uint timestamp;\r\n        bool approved;\r\n    }\r\n    \r\n    mapping(bytes32 => CircuitRequest) public requests;\r\n    \r\n    event CircuitRequested(\r\n        bytes32 id,\r\n        address requester,\r\n        string source,\r\n        string destination,\r\n        uint bandwidth,\r\n        uint startTime,\r\n        uint endTime,\r\n        bool recurring,\r\n        string path,\r\n        string status\r\n    );\r\n    \r\n    event CircuitApproved(\r\n        bytes32 id, \r\n        address requester, \r\n        CircuitParams params,\r\n        string status,\r\n        uint timestamp\r\n    );\r\n    \r\n    event CircuitRejected(bytes32 id);\r\n    \r\n    function requestCircuit(\r\n        string memory source,\r\n        string memory destination,\r\n        uint bandwidth,\r\n        uint startTime,\r\n        uint endTime,\r\n        bool recurring,\r\n        string memory path\r\n    ) public returns (bytes32) {\r\n        bytes32 requestId = keccak256(abi.encodePacked(msg.sender, source, destination, block.timestamp));\r\n        \r\n        CircuitParams memory params = CircuitParams(\r\n            source, destination, bandwidth, startTime, endTime, recurring, path\r\n        );\r\n\r\n        requests[requestId] = CircuitRequest(\r\n            requestId, msg.sender, params, \"pending\", block.timestamp, false\r\n        );\r\n        \r\n        emit CircuitRequested(\r\n                requestId,\r\n                msg.sender,\r\n                source,\r\n                destination,\r\n                bandwidth,\r\n                startTime,\r\n                endTime,\r\n                recurring,\r\n                path,\r\n                \"pending\");\r\n\r\n        return requestId;\r\n    }\r\n    \r\n    function approveCircuit(bytes32 _id) public {\r\n        require(requests[_id].approved == false, \"Circuit has already been approved\");\r\n        \r\n        CircuitRequest storage req = requests[_id];\r\n        req.approved = true;\r\n        req.status = \"approved\";\r\n        \r\n        emit CircuitApproved(\r\n            req.id, \r\n            req.requester, \r\n            req.params,\r\n            req.status,\r\n            req.timestamp\r\n        );\r\n    }\r\n    \r\n    function rejectCircuit(bytes32 _id) public {\r\n        require(requests[_id].approved == false, \"Circuit has already been processed\");\r\n        requests[_id].status = \"rejected\";\r\n        emit CircuitRejected(_id);\r\n    }\r\n    \r\n    function getCircuitRequest(bytes32 _id) public view returns (CircuitRequest memory) {\r\n        //bytes32, address, string memory, string memory, uint, bytes32[] memory, string[] memory, string[] memory, uint, uint, bool, string memory, string memory, uint, bool\r\n   // ) {\r\n        //CircuitRequest memory req = requests[_id];\r\n        /*return (\r\n        requests[_id].id,\r\n        requests[_id].requester,\r\n        requests[_id].params.source,\r\n        requests[_id].params.destination,\r\n        requests[_id].params.bandwidth,\r\n        requests[_id].params.policyIds,\r\n        requests[_id].params.policyDescriptions,\r\n        requests[_id].params.startTime,\r\n        requests[_id].params.endTime,\r\n        requests[_id].params.recurring,\r\n        requests[_id].params.path,\r\n        requests[_id].status,\r\n        requests[_id].timestamp,\r\n        requests[_id].approved\r\n        );*/\r\n        return requests[_id];\r\n    }\r\n\r\n}\r\n",
  "sourcePath": "/home/gess-desktop/Desktop/TCC/meican-smart-contract-api/contracts/MEICANRequestManager.sol",
  "compiler": {
    "name": "solc",
    "version": "0.8.21+commit.d9974bed.Emscripten.clang"
  },
  "schemaVersion": "3.4.16",
  "updatedAt": "2025-04-03T01:26:48.852Z",
  "networkType": "ethereum",
  "devdoc": {
    "kind": "dev",
    "methods": {},
    "version": 1
  },
  "userdoc": {
    "kind": "user",
    "methods": {},
    "version": 1
  }
}