{
  "contractName": "MEICANRequestManager",
  "abi": [
    {
      "anonymous": false,
      "inputs": [
        {
          "indexed": false,
          "internalType": "bytes32",
          "name": "id",
          "type": "bytes32"
        },
        {
          "indexed": false,
          "internalType": "address",
          "name": "requester",
          "type": "address"
        },
        {
          "components": [
            {
              "internalType": "string",
              "name": "source",
              "type": "string"
            },
            {
              "internalType": "string",
              "name": "destination",
              "type": "string"
            },
            {
              "internalType": "uint256",
              "name": "bandwidth",
              "type": "uint256"
            },
            {
              "internalType": "bytes32[]",
              "name": "policyIds",
              "type": "bytes32[]"
            },
            {
              "internalType": "string[]",
              "name": "policyNames",
              "type": "string[]"
            },
            {
              "internalType": "string[]",
              "name": "policyDescriptions",
              "type": "string[]"
            },
            {
              "internalType": "uint256",
              "name": "startTime",
              "type": "uint256"
            },
            {
              "internalType": "uint256",
              "name": "endTime",
              "type": "uint256"
            },
            {
              "internalType": "bool",
              "name": "recurring",
              "type": "bool"
            },
            {
              "internalType": "string",
              "name": "path",
              "type": "string"
            }
          ],
          "indexed": false,
          "internalType": "struct MEICANRequestManager.CircuitParams",
          "name": "params",
          "type": "tuple"
        },
        {
          "indexed": false,
          "internalType": "string",
          "name": "status",
          "type": "string"
        },
        {
          "indexed": false,
          "internalType": "uint256",
          "name": "timestamp",
          "type": "uint256"
        }
      ],
      "name": "CircuitApproved",
      "type": "event"
    },
    {
      "anonymous": false,
      "inputs": [
        {
          "indexed": false,
          "internalType": "bytes32",
          "name": "id",
          "type": "bytes32"
        }
      ],
      "name": "CircuitRejected",
      "type": "event"
    },
    {
      "anonymous": false,
      "inputs": [
        {
          "indexed": false,
          "internalType": "bytes32",
          "name": "id",
          "type": "bytes32"
        },
        {
          "indexed": false,
          "internalType": "address",
          "name": "requester",
          "type": "address"
        },
        {
          "components": [
            {
              "internalType": "string",
              "name": "source",
              "type": "string"
            },
            {
              "internalType": "string",
              "name": "destination",
              "type": "string"
            },
            {
              "internalType": "uint256",
              "name": "bandwidth",
              "type": "uint256"
            },
            {
              "internalType": "bytes32[]",
              "name": "policyIds",
              "type": "bytes32[]"
            },
            {
              "internalType": "string[]",
              "name": "policyNames",
              "type": "string[]"
            },
            {
              "internalType": "string[]",
              "name": "policyDescriptions",
              "type": "string[]"
            },
            {
              "internalType": "uint256",
              "name": "startTime",
              "type": "uint256"
            },
            {
              "internalType": "uint256",
              "name": "endTime",
              "type": "uint256"
            },
            {
              "internalType": "bool",
              "name": "recurring",
              "type": "bool"
            },
            {
              "internalType": "string",
              "name": "path",
              "type": "string"
            }
          ],
          "indexed": false,
          "internalType": "struct MEICANRequestManager.CircuitParams",
          "name": "params",
          "type": "tuple"
        },
        {
          "indexed": false,
          "internalType": "string",
          "name": "status",
          "type": "string"
        }
      ],
      "name": "CircuitRequested",
      "type": "event"
    },
    {
      "inputs": [
        {
          "internalType": "bytes32",
          "name": "",
          "type": "bytes32"
        }
      ],
      "name": "requests",
      "outputs": [
        {
          "internalType": "bytes32",
          "name": "id",
          "type": "bytes32"
        },
        {
          "internalType": "address",
          "name": "requester",
          "type": "address"
        },
        {
          "components": [
            {
              "internalType": "string",
              "name": "source",
              "type": "string"
            },
            {
              "internalType": "string",
              "name": "destination",
              "type": "string"
            },
            {
              "internalType": "uint256",
              "name": "bandwidth",
              "type": "uint256"
            },
            {
              "internalType": "bytes32[]",
              "name": "policyIds",
              "type": "bytes32[]"
            },
            {
              "internalType": "string[]",
              "name": "policyNames",
              "type": "string[]"
            },
            {
              "internalType": "string[]",
              "name": "policyDescriptions",
              "type": "string[]"
            },
            {
              "internalType": "uint256",
              "name": "startTime",
              "type": "uint256"
            },
            {
              "internalType": "uint256",
              "name": "endTime",
              "type": "uint256"
            },
            {
              "internalType": "bool",
              "name": "recurring",
              "type": "bool"
            },
            {
              "internalType": "string",
              "name": "path",
              "type": "string"
            }
          ],
          "internalType": "struct MEICANRequestManager.CircuitParams",
          "name": "params",
          "type": "tuple"
        },
        {
          "internalType": "string",
          "name": "status",
          "type": "string"
        },
        {
          "internalType": "uint256",
          "name": "timestamp",
          "type": "uint256"
        },
        {
          "internalType": "bool",
          "name": "approved",
          "type": "bool"
        }
      ],
      "stateMutability": "view",
      "type": "function",
      "constant": true
    },
    {
      "inputs": [
        {
          "internalType": "string",
          "name": "source",
          "type": "string"
        },
        {
          "internalType": "string",
          "name": "destination",
          "type": "string"
        },
        {
          "internalType": "uint256",
          "name": "bandwidth",
          "type": "uint256"
        },
        {
          "internalType": "bytes32[]",
          "name": "policyIds",
          "type": "bytes32[]"
        },
        {
          "internalType": "string[]",
          "name": "policyNames",
          "type": "string[]"
        },
        {
          "internalType": "string[]",
          "name": "policyDescriptions",
          "type": "string[]"
        },
        {
          "internalType": "uint256",
          "name": "startTime",
          "type": "uint256"
        },
        {
          "internalType": "uint256",
          "name": "endTime",
          "type": "uint256"
        },
        {
          "internalType": "bool",
          "name": "recurring",
          "type": "bool"
        },
        {
          "internalType": "string",
          "name": "path",
          "type": "string"
        }
      ],
      "name": "requestCircuit",
      "outputs": [
        {
          "internalType": "bytes32",
          "name": "",
          "type": "bytes32"
        }
      ],
      "stateMutability": "nonpayable",
      "type": "function"
    },
    {
      "inputs": [
        {
          "internalType": "bytes32",
          "name": "_id",
          "type": "bytes32"
        }
      ],
      "name": "approveCircuit",
      "outputs": [],
      "stateMutability": "nonpayable",
      "type": "function"
    },
    {
      "inputs": [
        {
          "internalType": "bytes32",
          "name": "_id",
          "type": "bytes32"
        }
      ],
      "name": "rejectCircuit",
      "outputs": [],
      "stateMutability": "nonpayable",
      "type": "function"
    },
    {
      "inputs": [
        {
          "internalType": "bytes32",
          "name": "_id",
          "type": "bytes32"
        }
      ],
      "name": "getCircuitRequest",
      "outputs": [
        {
          "components": [
            {
              "internalType": "bytes32",
              "name": "id",
              "type": "bytes32"
            },
            {
              "internalType": "address",
              "name": "requester",
              "type": "address"
            },
            {
              "components": [
                {
                  "internalType": "string",
                  "name": "source",
                  "type": "string"
                },
                {
                  "internalType": "string",
                  "name": "destination",
                  "type": "string"
                },
                {
                  "internalType": "uint256",
                  "name": "bandwidth",
                  "type": "uint256"
                },
                {
                  "internalType": "bytes32[]",
                  "name": "policyIds",
                  "type": "bytes32[]"
                },
                {
                  "internalType": "string[]",
                  "name": "policyNames",
                  "type": "string[]"
                },
                {
                  "internalType": "string[]",
                  "name": "policyDescriptions",
                  "type": "string[]"
                },
                {
                  "internalType": "uint256",
                  "name": "startTime",
                  "type": "uint256"
                },
                {
                  "internalType": "uint256",
                  "name": "endTime",
                  "type": "uint256"
                },
                {
                  "internalType": "bool",
                  "name": "recurring",
                  "type": "bool"
                },
                {
                  "internalType": "string",
                  "name": "path",
                  "type": "string"
                }
              ],
              "internalType": "struct MEICANRequestManager.CircuitParams",
              "name": "params",
              "type": "tuple"
            },
            {
              "internalType": "string",
              "name": "status",
              "type": "string"
            },
            {
              "internalType": "uint256",
              "name": "timestamp",
              "type": "uint256"
            },
            {
              "internalType": "bool",
              "name": "approved",
              "type": "bool"
            }
          ],
          "internalType": "struct MEICANRequestManager.CircuitRequest",
          "name": "",
          "type": "tuple"
        }
      ],
      "stateMutability": "view",
      "type": "function",
      "constant": true
    }
  ],
  "bytecode": "0x60806040523461001f57610011610024565b61234561002f823961234590f35b61002a565b60405190565b5f80fdfe60806040526004361015610013575b610ed4565b61001d5f3561006c565b80630414946c1461006757806317811bc1146100625780639d8669851461005d578063c6b068da146100585763d300fd090361000e57610ea1565b610e5f565b610add565b610427565b6100cd565b60e01c90565b60405190565b5f80fd5b5f80fd5b5f80fd5b90565b61009081610084565b0361009757565b5f80fd5b905035906100a882610087565b565b906020828203126100c3576100c0915f0161009b565b90565b61007c565b5f0190565b346100fb576100e56100e03660046100aa565b611ef6565b6100ed610072565b806100f7816100c8565b0390f35b610078565b61010990610084565b9052565b60018060a01b031690565b6101219061010d565b90565b61012d90610118565b9052565b5190565b60209181520190565b5f5b838110610150575050905f910152565b806020918301518185015201610140565b601f801991011690565b61018a6101936020936101989361018181610131565b93848093610135565b9586910161013e565b610161565b0190565b90565b6101a89061019c565b9052565b5190565b60209181520190565b60200190565b906101cc81602093610100565b0190565b60200190565b906101f36101ed6101e6846101ac565b80936101b0565b926101b9565b905f5b8181106102035750505090565b90919261021c61021660019286516101bf565b946101d0565b91019190916101f6565b5190565b60209181520190565b60200190565b906102439161016b565b90565b60200190565b9061026061025983610226565b809261022a565b908161027160208302840194610233565b925f915b83831061028457505050505090565b909192939460206102a66102a083856001950387528951610239565b97610246565b9301930191939290610275565b151590565b6102c1906102b3565b9052565b6103949161012061034a6103386103266103026102f061014087015f8901518882035f8a015261016b565b6020880151878203602089015261016b565b6103146040880151604088019061019f565b606087015186820360608801526101d6565b6080860151858203608087015261024c565b60a085015184820360a086015261024c565b9261035d60c082015160c085019061019f565b61036f60e082015160e085019061019f565b6103836101008201516101008501906102b8565b01519061012081840391015261016b565b90565b9061040c9060a0806103ef6103dd60c085016103b95f8901515f880190610100565b6103cb60208901516020880190610124565b604088015186820360408801526102c5565b6060870151858203606087015261016b565b946104026080820151608086019061019f565b01519101906102b8565b90565b6104249160208201915f818403910152610397565b90565b346104575761045361044261043d3660046100aa565b6122f1565b61044a610072565b9182918261040f565b0390f35b610078565b61046590610084565b90565b906104729061045c565b5f5260205260405f2090565b5f1c90565b90565b6104926104979161047e565b610483565b90565b6104a49054610486565b90565b60018060a01b031690565b6104be6104c39161047e565b6104a7565b90565b6104d090546104b2565b90565b634e487b7160e01b5f52602260045260245ffd5b9060016002830492168015610507575b602083101461050257565b6104d3565b91607f16916104f7565b5f5260205f2090565b905f929180549061053461052d836104e7565b8094610135565b916001811690815f1461058b575060011461054f575b505050565b61055c9192939450610511565b915f925b81841061057357505001905f808061054a565b60018160209295939554848601520191019290610560565b92949550505060ff19168252151560200201905f808061054a565b906105b09161051a565b90565b634e487b7160e01b5f52604160045260245ffd5b906105d190610161565b810190811067ffffffffffffffff8211176105eb57604052565b6105b3565b9061061061060992610600610072565b938480926105a6565b03836105c7565b565b52565b90565b6106246106299161047e565b610615565b90565b6106369054610618565b90565b906106439061019c565b9052565b5490565b5f5260205f2090565b61065e9054610486565b90565b60010190565b9061068461067e61067784610647565b80936101b0565b9261064b565b905f5b8181106106945750505090565b9091926106b46106ae6001926106a987610654565b6101bf565b94610661565b9101919091610687565b906106c891610667565b90565b906106eb6106e4926106db610072565b938480926106be565b03836105c7565b565b52565b5490565b90610707610700610072565b92836105c7565b565b67ffffffffffffffff81116107215760208091020190565b6105b3565b9061073861073383610709565b6106f4565b918252565b5f5260205f2090565b61074f906105f0565b90565b9061075c826106f0565b61076581610726565b92610773602085019161073d565b5f915b8383106107835750505050565b60016020819261079285610746565b815201920192019190610776565b52565b60ff1690565b6107b56107ba9161047e565b6107a3565b90565b6107c790546107a9565b90565b906107d4906102b3565b9052565b6107e36101406106f4565b90565b906108df6108d560096107f76107d8565b9461080e6108065f83016105f0565b5f8801610612565b61082661081d600183016105f0565b60208801610612565b61083e6108356002830161062c565b60408801610639565b61085661084d600383016106cb565b606088016106ed565b61086e61086560048301610752565b608088016107a0565b61088661087d60058301610752565b60a088016107a0565b61089e6108956006830161062c565b60c08801610639565b6108b66108ad6007830161062c565b60e08801610639565b6108cf6108c5600883016107bd565b61010088016107ca565b016105f0565b6101208401610612565b565b6108eb905f610468565b906108f75f830161049a565b91610904600182016104c6565b91610911600283016107e6565b9161091e600c82016105f0565b91610937600e610930600d850161062c565b93016107bd565b90565b61094390610084565b9052565b61095090610118565b9052565b610a23916101206109d96109c76109b561099161097f61014087015f8901518882035f8a015261016b565b6020880151878203602089015261016b565b6109a36040880151604088019061019f565b606087015186820360608801526101d6565b6080860151858203608087015261024c565b60a085015184820360a086015261024c565b926109ec60c082015160c085019061019f565b6109fe60e082015160e085019061019f565b610a126101008201516101008501906102b8565b01519061012081840391015261016b565b90565b60209181520190565b610a4e610a57602093610a5c93610a4581610131565b93848093610a26565b9586910161013e565b610161565b0190565b610a699061019c565b9052565b610a76906102b3565b9052565b91610adb95979694610abb610ad49360a096610aae610ac995610aa460c08a01945f8b019061093a565b6020890190610947565b8682036040880152610954565b908482036060860152610a2f565b966080830190610a60565b0190610a6d565b565b34610b1457610b10610af8610af33660046100aa565b6108e1565b92610b07969496929192610072565b96879687610a7a565b0390f35b610078565b5f80fd5b5f80fd5b67ffffffffffffffff8111610b3f57610b3b602091610161565b0190565b6105b3565b90825f939282370152565b90929192610b64610b5f82610b21565b6106f4565b93818552602085019082840111610b8057610b7e92610b44565b565b610b1d565b9080601f83011215610ba357816020610ba093359101610b4f565b90565b610b19565b610bb18161019c565b03610bb857565b5f80fd5b90503590610bc982610ba8565b565b67ffffffffffffffff8111610be35760208091020190565b6105b3565b5f80fd5b90929192610c01610bfc82610bcb565b6106f4565b9381855260208086019202830192818411610c3e57915b838310610c255750505050565b60208091610c33848661009b565b815201920191610c18565b610be8565b9080601f83011215610c6157816020610c5e93359101610bec565b90565b610b19565b929190610c7a610c7582610709565b6106f4565b9381855260208086019202810191838311610cd15781905b838210610ca0575050505050565b813567ffffffffffffffff8111610ccc57602091610cc18784938701610b85565b815201910190610c92565b610b19565b610be8565b9080601f83011215610cf457816020610cf193359101610c66565b90565b610b19565b610d02816102b3565b03610d0957565b5f80fd5b90503590610d1a82610cf9565b565b9061014082820312610e45575f82013567ffffffffffffffff8111610e405781610d47918401610b85565b92602083013567ffffffffffffffff8111610e3b5782610d68918501610b85565b92610d768360408301610bbc565b92606082013567ffffffffffffffff8111610e365781610d97918401610c43565b92608083013567ffffffffffffffff8111610e315782610db8918501610cd6565b9260a081013567ffffffffffffffff8111610e2c5783610dd9918301610cd6565b92610de78160c08401610bbc565b92610df58260e08501610bbc565b92610e04836101008301610d0d565b9261012082013567ffffffffffffffff8111610e2757610e249201610b85565b90565b610080565b610080565b610080565b610080565b610080565b610080565b61007c565b9190610e5d905f6020850194019061093a565b565b34610e9c57610e98610e87610e75366004610d1c565b989790979691969592959493946119b3565b610e8f610072565b91829182610e4a565b0390f35b610078565b34610ecf57610eb9610eb43660046100aa565b6120ac565b610ec1610072565b80610ecb816100c8565b0390f35b610078565b5f80fd5b5f90565b60601b90565b610eeb90610edc565b90565b610ef790610ee2565b90565b610f06610f0b91610118565b610eee565b9052565b905090565b610f39610f3092602092610f2781610131565b94858093610f0f565b9384910161013e565b0190565b90565b610f4c610f519161019c565b610f3d565b9052565b92610f77610f8493601486610f7060209998610f7d97610efa565b0190610f14565b90610f14565b8092610f40565b0190565b60200190565b5190565b610f9d6101406106f4565b90565b610faa60c06106f4565b90565b90610fb790610084565b9052565b90610fc590610118565b9052565b52565b90610fde610fd983610b21565b6106f4565b918252565b5f7f70656e64696e6700000000000000000000000000000000000000000000000000910152565b6110146007610fcc565b9061102160208301610fe3565b565b61102b61100a565b90565b634e487b7160e01b5f525f60045260245ffd5b61104b9051610084565b90565b5f1b90565b9061105f5f199161104e565b9181191691161790565b6110729061047e565b90565b9061108a6110856110919261045c565b611069565b8254611053565b9055565b61109f9051610118565b90565b906110b360018060a01b039161104e565b9181191691161790565b90565b6110d46110cf6110d99261010d565b6110bd565b61010d565b90565b6110e5906110c0565b90565b6110f1906110dc565b90565b90565b9061110c611107611113926110e8565b6110f4565b82546110a2565b9055565b5190565b5190565b601f602091010490565b1b90565b919060086111489102916111425f1984611129565b92611129565b9181191691161790565b61116661116161116b9261019c565b6110bd565b61019c565b90565b90565b919061118761118261118f93611152565b61116e565b90835461112d565b9055565b5f90565b6111a9916111a3611193565b91611171565b565b5b8181106111b7575050565b806111c45f600193611197565b016111ac565b9190601f81116111da575b505050565b6111e661120b93610511565b9060206111f28461111f565b83019310611213575b6112049061111f565b01906111ab565b5f80806111d5565b9150611204819290506111fb565b1c90565b90611235905f1990600802611221565b191690565b8161124491611225565b906002021790565b9061125681610131565b9067ffffffffffffffff82116113165761127a8261127485546104e7565b856111ca565b602090601f83116001146112ae5791809161129d935f926112a2575b505061123a565b90555b565b90915001515f80611296565b601f198316916112bd85610511565b925f5b8181106112fe575091600293918560019694106112e4575b505050020190556112a0565b6112f4910151601f841690611225565b90555f80806112d8565b919360206001819287870151815501950192016112c0565b6105b3565b906113259161124c565b565b611331905161019c565b90565b9061134961134461135092611152565b61116e565b8254611053565b9055565b5190565b600190818003010490565b91906113796113746113819361045c565b611069565b90835461112d565b9055565b61139791611391610ed8565b91611363565b565b5b8181106113a5575050565b806113b25f600193611385565b0161139a565b906113cb905f1990602003600802611221565b8154169055565b90918281106113e1575b505050565b6113ff6113f96113f361140a95611358565b92611358565b9261064b565b918201910190611399565b5f80806113dc565b9068010000000000000000811161143b578161143061143993610647565b908281556113d2565b565b6105b3565b611449826101ac565b9167ffffffffffffffff83116114ac5761147761147160019261146c8686611412565b6101b9565b9261064b565b9204915f5b8381106114895750505050565b600190602061149f61149a86611041565b611069565b940193818401550161147c565b6105b3565b906114bb91611440565b565b5190565b600190818003010490565b905f916114e36114db82610511565b92835461123a565b905555565b919290602082105f1461154157601f84116001146115115761150b92935061123a565b90555b5b565b509061153761153c93600161152e61152885610511565b9261111f565b820191016111ab565b6114cc565b61150e565b506115788293611552600194610511565b61157161155e8561111f565b820192601f861680611583575b5061111f565b01906111ab565b60020217905561150f565b61158f908886036113b8565b5f61156b565b9290916801000000000000000082116115f5576020115f146115e657602081105f146115ca576115c49161123a565b90555b5b565b60019160ff19166115da84610511565b556002020190556115c7565b600191506002020190556115c8565b6105b3565b908154611606816104e7565b9081831161162f575b81831061161d575b50505050565b611626936114e8565b5f808080611617565b61163b83838387611595565b61160f565b5f61164a916115fa565b565b905f0361165e5761165c90611640565b565b61102e565b5b81811061166f575050565b8061167c5f60019361164c565b01611664565b9091828110611691575b505050565b6116af6116a96116a36116ba956114c1565b926114c1565b9261073d565b918201910190611663565b5f808061168c565b906801000000000000000081116116eb57816116e06116e9936106f0565b90828155611682565b565b6105b3565b61171561170f6116ff84610226565b9361170a85856116c2565b610233565b9161073d565b5f915b8383106117255750505050565b600160208261173d611737849561111b565b8661131b565b01920192019190611718565b90611753916116f0565b565b61175f90516102b3565b90565b9061176e60ff9161104e565b9181191691161790565b611781906102b3565b90565b90565b9061179c6117976117a392611778565b611784565b8254611762565b9055565b9061189c61012060096118a2946117cb5f82016117c55f880161111b565b9061131b565b6117e4600182016117de6020880161111b565b9061131b565b6117fd600282016117f760408801611327565b90611334565b6118166003820161181060608801611354565b906114b1565b61182f60048201611829608088016114bd565b90611749565b6118486005820161184260a088016114bd565b90611749565b6118616006820161185b60c08801611327565b90611334565b61187a6007820161187460e08801611327565b90611334565b6118946008820161188e6101008801611755565b90611787565b01920161111b565b9061131b565b565b906118ae916117a7565b565b9061193f60a0600e611945946118d35f82016118cd5f8801611041565b90611075565b6118ec600182016118e660208801611095565b906110f7565b611905600282016118ff60408801611117565b906118a4565b61191e600c82016119186060880161111b565b9061131b565b611937600d820161193160808801611327565b90611334565b019201611755565b90611787565b565b90611951916118b0565b565b6119606007602092610a26565b61196981610fe3565b0190565b91906119b0936119956119a29361198b60808701945f88019061093a565b6020860190610947565b8382036040850152610954565b906060818303910152611953565b90565b989592979491969390976119c5610ed8565b50338a8a91426119d3610072565b93849360208501936119e494610f55565b6020820181038252036119f790826105c7565b611a0081610f8e565b90611a0a90610f88565b209998979091929394959697611a1e610f92565b995f8b0190611a2c91610612565b60208a0190611a3a91610612565b6040890190611a4891610639565b6060880190611a56916106ed565b6080870190611a64916107a0565b60a0860190611a72916107a0565b60c0850190611a8091610639565b60e0840190611a8e91610639565b610100830190611a9d916107ca565b610120820190611aac91610612565b81338242905f92611abb610fa0565b945f860190611ac991610fad565b6020850190611ad791610fbb565b6040840190611ae591610fc9565b611aed611023565b6060840190611afb91610612565b6080830190611b0991610639565b60a0820190611b17916107ca565b5f83611b2291610468565b90611b2c91611947565b8190337fc0902070bb2eadf807cc58d48d5e557e3687aa1a82dae5f1f7682e5423156e4892611b59610072565b928392611b66928461196d565b0390a190565b60207f6400000000000000000000000000000000000000000000000000000000000000917f436972637569742068617320616c7265616479206265656e20617070726f76655f8201520152565b611bc66021604092610a26565b611bcf81611b6c565b0190565b611be89060208101905f818303910152611bb9565b90565b15611bf257565b611bfa610072565b62461bcd60e51b815280611c1060048201611bd3565b0390fd5b90565b5f5260205f2090565b9190601f8111611c30575b505050565b611c3c611c6193611c17565b906020611c488461111f565b83019310611c69575b611c5a9061111f565b01906111ab565b5f8080611c2b565b9150611c5a81929050611c51565b611c8c6008611c8683546104e7565b83611c20565b60107f617070726f766564000000000000000000000000000000000000000000000000019055565b611cbd90611c77565b565b60010190565b90611cd9611cd2836106f0565b809261022a565b9081611cea6020830284019461073d565b925f915b838310611cfd57505050505090565b90919293946020611d1e611d188385600195038752896105a6565b97611cbf565b9301930191939290611cee565b611e12916009611db2611da1611d90611d65611d5461014087015f89018882035f8a015261051a565b60018801878203602089015261051a565b611d7f611d756002890154610618565b604088019061019f565b600387018682036060880152610667565b600486018582036080870152611cc5565b6005850184820360a0860152611cc5565b92611dcd611dc36006830154610618565b60c085019061019f565b611de7611ddd6007830154610618565b60e085019061019f565b611e02611df760088301546107a9565b6101008501906102b8565b019061012081840391015261051a565b90565b905f9291805490611e2f611e28836104e7565b8094610a26565b916001811690815f14611e865750600114611e4a575b505050565b611e579192939450610511565b915f925b818410611e6e57505001905f8080611e45565b60018160209295939554848601520191019290611e5b565b92949550505060ff19168252151560200201905f8080611e45565b95949293611ede87611ef496611ed1608096611ec7611eec975f60a0870196019061093a565b60208c0190610947565b89820360408b0152611d2b565b908782036060890152611e15565b940190610a60565b565b611f34611f3991611f2e611f16600e611f105f8590610468565b016107bd565b611f28611f225f6102b3565b916102b3565b14611beb565b5f610468565b611c14565b611f476001600e8301611787565b611f53600c8201611cb4565b611f5e5f820161049a565b611f6a600183016104c6565b90611fb76002840193611f83600d600c8301920161062c565b907f4d8b8e79e4e58bbb1b56ca0d2ff86d7ac1145b24ddb87719a696206f5905a41095611fae610072565b95869586611ea1565b0390a1565b60207f6564000000000000000000000000000000000000000000000000000000000000917f436972637569742068617320616c7265616479206265656e2070726f636573735f8201520152565b6120166022604092610a26565b61201f81611fbc565b0190565b6120389060208101905f818303910152612009565b90565b1561204257565b61204a610072565b62461bcd60e51b81528061206060048201612023565b0390fd5b612079600861207383546104e7565b83611c20565b60107f72656a6563746564000000000000000000000000000000000000000000000000019055565b6120aa90612064565b565b6120dd6120c5600e6120bf5f8590610468565b016107bd565b6120d76120d15f6102b3565b916102b3565b1461203b565b6120f3600c6120ed5f8490610468565b016120a1565b6121297fbf05ee107eddab54f2e651191eaa69e5d33d641a0d982ee480c6aac19234087991612120610072565b91829182610e4a565b0390a1565b61213860c06106f4565b90565b5f90565b5f90565b606090565b5f90565b606090565b606090565b5f90565b6121626107d8565b9060208080808080808080808b612177612143565b815201612182612143565b81520161218d612148565b81520161219861214c565b8152016121a3612151565b8152016121ae612151565b8152016121b9612148565b8152016121c4612148565b8152016121cf612156565b8152016121da612143565b81525050565b6121e861215a565b90565b6121f361212e565b90602080808080808761220461213b565b81520161220f61213f565b81520161221a6121e0565b815201612225612143565b815201612230612148565b81520161223b612156565b81525050565b6122496121eb565b90565b906122e36122da600e61225d61212e565b9461227461226c5f830161049a565b5f8801610fad565b61228c612283600183016104c6565b60208801610fbb565b6122a461229b600283016107e6565b60408801610fc9565b6122bc6122b3600c83016105f0565b60608801610612565b6122d46122cb600d830161062c565b60808801610639565b016107bd565b60a084016107ca565b565b6122ee9061224c565b90565b61230761230c91612300612241565b505f610468565b6122e5565b9056fea264697066735822122014539df8483582acbd2f5cfe1f86d6390f021370d31b33f761dc5bf2dbf76e9a64736f6c63430008150033",
  "immutableReferences": {},
  "source": "// SPDX-License-Identifier: MIT\r\npragma solidity ^0.8.20;\r\n\r\ncontract MEICANRequestManager {\r\n    struct CircuitParams {\r\n        string source;\r\n        string destination;\r\n        uint bandwidth;\r\n        bytes32[] policyIds;\r\n        string[] policyNames;\r\n        string[] policyDescriptions;\r\n        uint startTime;\r\n        uint endTime;\r\n        bool recurring;\r\n        string path;\r\n    }\r\n    \r\n    struct CircuitRequest {\r\n        bytes32 id;\r\n        address requester;\r\n        CircuitParams params;\r\n        string status;\r\n        uint timestamp;\r\n        bool approved;\r\n    }\r\n    \r\n    mapping(bytes32 => CircuitRequest) public requests;\r\n    \r\n    event CircuitRequested(\r\n        bytes32 id, \r\n        address requester, \r\n        CircuitParams params,\r\n        string status\r\n    );\r\n    \r\n    event CircuitApproved(\r\n        bytes32 id, \r\n        address requester, \r\n        CircuitParams params,\r\n        string status,\r\n        uint timestamp\r\n    );\r\n    \r\n    event CircuitRejected(bytes32 id);\r\n    \r\n    function requestCircuit(\r\n        string memory source,\r\n        string memory destination,\r\n        uint bandwidth,\r\n        bytes32[] memory policyIds,\r\n        string[] memory policyNames,\r\n        string[] memory policyDescriptions,\r\n        uint startTime,\r\n        uint endTime,\r\n        bool recurring,\r\n        string memory path\r\n    ) public returns (bytes32) {\r\n        bytes32 requestId = keccak256(abi.encodePacked(msg.sender, source, destination, block.timestamp));\r\n        \r\n        CircuitParams memory params = CircuitParams(\r\n            source, destination, bandwidth, policyIds, policyNames, policyDescriptions, startTime, endTime, recurring, path\r\n        );\r\n\r\n        requests[requestId] = CircuitRequest(\r\n            requestId, msg.sender, params, \"pending\", block.timestamp, false\r\n        );\r\n        \r\n        emit CircuitRequested(requestId, msg.sender, params, \"pending\");\r\n\r\n        return requestId;\r\n    }\r\n    \r\n    function approveCircuit(bytes32 _id) public {\r\n        require(requests[_id].approved == false, \"Circuit has already been approved\");\r\n        \r\n        CircuitRequest storage req = requests[_id];\r\n        req.approved = true;\r\n        req.status = \"approved\";\r\n        \r\n        emit CircuitApproved(\r\n            req.id, \r\n            req.requester, \r\n            req.params,\r\n            req.status,\r\n            req.timestamp\r\n        );\r\n    }\r\n    \r\n    function rejectCircuit(bytes32 _id) public {\r\n        require(requests[_id].approved == false, \"Circuit has already been processed\");\r\n        requests[_id].status = \"rejected\";\r\n        emit CircuitRejected(_id);\r\n    }\r\n    \r\n    function getCircuitRequest(bytes32 _id) public view returns (CircuitRequest memory) {\r\n        //bytes32, address, string memory, string memory, uint, bytes32[] memory, string[] memory, string[] memory, uint, uint, bool, string memory, string memory, uint, bool\r\n   // ) {\r\n        //CircuitRequest memory req = requests[_id];\r\n        /*return (\r\n        requests[_id].id,\r\n        requests[_id].requester,\r\n        requests[_id].params.source,\r\n        requests[_id].params.destination,\r\n        requests[_id].params.bandwidth,\r\n        requests[_id].params.policyIds,\r\n        requests[_id].params.policyNames,\r\n        requests[_id].params.policyDescriptions,\r\n        requests[_id].params.startTime,\r\n        requests[_id].params.endTime,\r\n        requests[_id].params.recurring,\r\n        requests[_id].params.path,\r\n        requests[_id].status,\r\n        requests[_id].timestamp,\r\n        requests[_id].approved\r\n        );*/\r\n        return requests[_id];\r\n    }\r\n\r\n}\r\n",
  "sourcePath": "/home/gess-desktop/Desktop/TCC/meican-smart-contract-api/contracts/MEICANRequestManager.sol",
  "compiler": {
    "name": "solc",
    "version": "0.8.21+commit.d9974bed.Emscripten.clang"
  },
  "schemaVersion": "3.4.16",
  "updatedAt": "2025-03-20T01:17:16.407Z",
  "networkType": "ethereum",
  "devdoc": {
    "kind": "dev",
    "methods": {},
    "version": 1
  },
  "userdoc": {
    "kind": "user",
    "methods": {},
    "version": 1
  }
}